:020000040800F2
:10000000700700201D3C0008790300087B030008EE
:100010007F03000883030008870300080000000036
:100020000000000000000000000000008B0300083A
:100030008D030008000000008F03000891030008F2
:10004000373C0008373C0008373C0008373C0008C4
:10005000373C0008373C0008373C0008373C0008B4
:10006000373C0008373C0008373C0008373C0008A4
:10007000373C0008373C0008373C0008373C000894
:10008000373C0008373C0008373C0008373C000884
:10009000373C0008373C0008373C0008373C000874
:1000A000373C0008373C0008373C0008373C000864
:1000B000373C0008373C0008373C0008373C000854
:1000C000373C0008373C0008373C0008373C000844
:1000D000373C0008913B0008373C0008373C0008DB
:1000E000373C0008373C0008373C0008373C000824
:1000F000373C0008373C0008373C0008373C000814
:10010000373C0008373C0008373C0008373C000803
:10011000373C0008373C0008373C0008373C0008F3
:10012000373C0008373C0008373C0008373C0008E3
:1001300000F002F800F03FF80AA090E8000C8244BA
:100140008344AAF10107DA4501D100F034F8AFF297
:10015000090EBAE80F0013F0010F18BFFB1A43F0A5
:10016000010318471C6B00003C6B0000103A24BFD1
:1001700078C878C1FAD8520724BF30C830C144BF0C
:1001800004680C607047000000230024002500264E
:10019000103A28BF78C1FBD8520728BF30C148BFEA
:1001A0000B607047782904F09B86002070471FB5CC
:1001B0001FBD10B510BD04F0EDFF1146FFF7F7FFAE
:1001C00000F008F805F00BF803B4FFF7F2FF03BCEA
:1001D00003F084FC86B0002403F016FC4FF4A0600A
:1001E00003F03CFD4FF4E13003F086FC00F0C2F96F
:1001F00000F036FE4FF478404A4908804A48828829
:100200004AA103A804F030FE8BE00C2C41D2DFE8B9
:1002100004F0060B0F13181D22272C31363B4FF626
:10022000FF7000F008FE34E0002000F004FE30E033
:100230001F2000F000FE2CE04FF4784000F0FBFDA2
:1002400027E04FF61F0000F0F6FD22E04FF4FC60BF
:1002500000F0F1FD1DE047F6FF7000F0ECFD18E046
:100260004FF6E07000F0E7FD13E04FF6074000F0B6
:10027000E2FD0EE048F2304000F0DDFD09E04CF216
:10028000186000F0D8FD04E04BF6404000F0D3FDCC
:1002900000BF00BF4FF478402249088026A01821F3
:1002A0000B46D222CDE9001028211E2003F06DFB61
:1002B00026A010210B46C822CDE9001046211E20A1
:1002C00003F063FB24A010210B46C822CDE90010E7
:1002D0005A211E2003F059FB03A810210B46C82207
:1002E000CDE900106E211E2003F04FFB1EA00C2153
:1002F0000B46C822CDE9001082211E2003F045FBE9
:10030000601CC4B20C2C00D100241A48006808B943
:10031000012000E00020174908604FF47A7003F0D4
:10032000B0FB72E714000020380000204C4344204A
:1003300049443A2530345800456C6974652053545B
:100340004D33324631205E5F5E0000005446544C0F
:10035000434420544553540041544F4D40414C496F
:10036000454E54454B000000323031352F312F318E
:100370003400000094812142704700BFFEE700BFB7
:10038000FEE700BFFEE700BFFEE77047704770471B
:10039000704700000CB50020019000906C48006888
:1003A00040F480306A49086000BF6948006800F482
:1003B000003000900198401C0190009818B90198F5
:1003C000B0F5A06FF1D16248006800F4003010B1C0
:1003D0000120009001E0002000900098012843D106
:1003E0005C48006840F010005A4908600846006800
:1003F00020F0030008600846006840F00200086032
:10040000534840685249486008464068486008467A
:10041000406840F4806048600846406820F47C10E2
:1004200048600846406840F4E810486008460068A4
:1004300040F08070086000BF4548006800F0007020
:100440000028F9D04248406820F003004049486045
:100450000846406840F00200486000BF3C484068E1
:1004600000F00C000828F9D10CBD10B5FFF792FF81
:1004700010BD10B53648006840F0010034490860EE
:1004800008464068344908403149486008460068D9
:10049000324908402E4908600846006820F4802050
:1004A00008600846406820F4FE0048604FF41F00D2
:1004B0008860FFF7DAFF4FF000602949086010BD3F
:1004C00010B5002100200022214B5B6803F00C01D5
:1004D00021B1042906D0082928D107E0214B224C5C
:1004E000236027E01F4B204C236023E0184B5B6800
:1004F00003F47010164B5B6803F48032022303EBA5
:10050000904022B9194B4343174C23600DE0104B28
:100510005B6803F4003323B1144B4343124C236054
:1005200003E0104B4343104C236003E00D4B0E4C93
:10053000236000BF00BF064B5B68C3F303130C4C82
:10054000E15C094B1B68CB40074C236010BD0000E9
:1005500000100240002002400000FFF8FFFFF6FEFE
:1005600008ED00E000127A000000002000093D00C4
:100570000400002008B50121482004F0FFF92020E4
:10058000ADF8000010208DF8030003208DF8020064
:100590006946094803F036FF2021074803F0DFFFD2
:1005A0002020ADF800006946044803F02BFF20210D
:1005B000024803F0D4FF08BD000C014000180140C0
:1005C000FE4908807047FD49891C0880704708B5BE
:1005D000FA48801C00880090BDF8000008BDF74A6A
:1005E0001080921C1180704710B504462046FFF71A
:1005F000E7FF052003F021FAFFF7E9FF10BDF048FF
:100600000089EE4908807047EC49891C08807047D2
:1006100030B5014601F01F04C1F34513CA0AE502D3
:1006200005EB43151544A8B230BD00BF011EA0F173
:100630000102D0B2FAD1704700B502460B46E0483D
:10064000808841F66311884247D1DD488079A8B996
:10065000DB480088401E801A82B2D9494889FFF7DA
:10066000AFFF0020FFF7AFFF0020FFF7ACFF101235
:10067000FFF7A9FFD0B2FFF7A6FF16E0D0494889DF
:10068000FFF79EFF1012FFF79EFFD0B2FFF79BFF10
:10069000CB490988491EC1F30F20FFF794FFC849D1
:1006A0000978491EC8B2FFF78EFFC5498889FFF750
:1006B00087FF1812FFF787FFD8B2FFF784FFC04902
:1006C0004988491EC1F30F20FFF77DFFBC49897897
:1006D000491EC8B2FFF777FF3AE0B948808845F273
:1006E0001051884220D1B6494889FFF769FF10129E
:1006F000FFF769FFB2494989491C88B2FFF760FFDB
:10070000D0B2FFF760FFAE498889FFF759FF181292
:10071000FFF759FFAA498989491C88B2FFF750FFA2
:10072000D8B2FFF750FF13E0A5494889FFF748FF0B
:100730001012FFF748FFD0B2FFF745FFA0498889A4
:10074000FFF73EFF1812FFF73EFFD8B2FFF73BFF5F
:1007500000BD2DE9F04105460E4699480088A842A3
:1007600003DD97484088B04202DC0020BDE8F081FC
:1007700031462846FFF760FF9148808845F21051C6
:10078000884204D14FF43850FFF71AFF02E02E20C0
:10079000FFF716FFFFF71BFF04468948808841F6E4
:1007A0006311884201D12046E0E7FFF710FF0446BD
:1007B000FFF70DFF8046E7B24FF6FF7000EA07270C
:1007C000E012C002B91240EA411040EAE820CDE749
:1007D00000B57B48808845F21051884204D14FF41F
:1007E0002450FFF7EDFE02E02920FFF7E9FE00BDEF
:1007F00000B57348808845F21051884204D14FF407
:100800002050FFF7DDFE02E02820FFF7D9FE00BDF3
:1008100070B504460023002669488079012805D177
:100820006748808841F66311884208D1644880791E
:10083000F0B96348808841F66311884218D1082CCA
:1008400015D2DFE804F00406080A0C0E1012062484
:100850000DE007240BE0042409E0052407E001244F
:1008600005E0002403E0032401E0022400BF00BFF0
:10087000082C1CD2DFE804F00406090C0F1215182E
:1008800000BF14E043F0800311E043F040030EE0AA
:1008900043F0C0030BE043F0200308E043F06003A3
:1008A00005E043F0A00302E043F0E00300BF00BF17
:1008B0004348808845F21051884202D14FF458567F
:1008C00000E036263E48808849F24131884205D012
:1008D0003B48808847F28971884201D143F0080380
:1008E00019463046FFF77BFE3548808841F6631194
:1008F00088421DD003F0200068B13148008830499B
:100900004988884214DA2E48058840882C49088096
:10091000084645800CE02A480088294949888842D1
:1009200006DD274805884088254908800846458017
:100930002348808845F21051884257D12049488980
:10094000FFF73EFE0020FFF73EFE1D494989491C86
:1009500088B2FFF735FE0020FFF735FE18494989B8
:10096000891C88B2FFF72CFE15490988491EC1F37E
:100970000F20FFF728FE12494989C91C88B2FFF7EA
:100980001FFE0F490978491EC8B2FFF71CFE0C492B
:100990008889FFF715FE0020FFF715FE08498989B1
:1009A000491C88B2FFF70CFE0020FFF70CFE04493B
:1009B0008989891C88B2FFF703FE03E0FE07006CFB
:1009C00038000020FE494988491EC1F30F20FFF777
:1009D000FAFDFB498989C91C88B2FFF7F1FDF84986
:1009E0008978491EC8B2FFF7EEFD2DE0F449488929
:1009F000FFF7E6FD0020FFF7E6FD0020FFF7E3FD2F
:100A0000EF490988491EC1F30F20FFF7DCFDEC49CF
:100A10000978491EC8B2FFF7D6FDE9498889FFF772
:100A2000CFFD0020FFF7CFFD0020FFF7CCFDE4490C
:100A30004988491EC1F30F20FFF7C5FDE0498978B9
:100A4000491EC8B2FFF7BFFD70BD30B504460D4664
:100A500029462046FFF7F0FDFFF7D1FDD948008871
:100A6000D949088030BD10B503460C46D44880886B
:100A700045F21051884220D1D1494889FFF7A0FDA5
:100A80001812FFF7A0FDCE494989491C88B2FFF72B
:100A900097FDD8B2FFF797FDC9498889FFF790FD08
:100AA0002012FFF790FDC6498989491C88B2FFF7DB
:100AB00087FDE0B2FFF787FD42E0C148808841F63C
:100AC0006311884228D1BE48807920B9BC4800888B
:100AD000401EC01A83B2BA494889FFF771FD181247
:100AE000FFF771FDD8B2FFF76EFD1812FFF76BFD2F
:100AF000D8B2FFF768FDB2498889FFF761FD20127F
:100B0000FFF761FDE0B2FFF75EFD2012FFF75BFD2E
:100B1000E0B2FFF758FD13E0A9494889FFF750FDFF
:100B20001812FFF750FDD8B2FFF74DFDA449888990
:100B3000FFF746FD2012FFF746FDE0B2FFF743FD49
:100B40009F480089A049891E0880881C028010BD2A
:100B50002DE9F0470446BE20FFF732FD0520FFF7E0
:100B600032FD204604F07DFB07464FF06632974B7E
:100B700004F08AFB054604F047FB1FFA80F948465B
:100B8000FFF721FD0120FFF71EFDFF20FFF71BFDF2
:100B90000020FFF718FD0020FFF715FDBDE8F087E6
:100BA00010B5044686488471002C45D1F020844954
:100BB00008804FF4A07048800846808845F21051A4
:100BC000884210D14FF430507D4908814FF42850AD
:100BD00048814FF42C5088814FF4F07008804FF416
:100BE000487048801AE07648808841F66311884250
:100BF0000DD12C20724908812B2048812A20888120
:100C00004FF4F07008804FF44870488006E02C20C4
:100C10006B4908812A2048812B2088816848808878
:100C200045F2103188424CD14FF4A07064490880DD
:100C30004FF4F070488044E04FF4A07060490880A1
:100C4000F02048800846808845F21051884210D133
:100C50004FF430505A4908814FF4285048814FF4DE
:100C60002C5088814FF4487008804FF4F070488011
:100C70001AE05348808841F6631188420DD12C2038
:100C80004F4908812A2048812B2088814FF44870E1
:100C900008804FF4F070488006E02C204849088115
:100CA0002A2048812B2088814548808845F21031D0
:100CB000884206D14FF4F070414908804FF4A0708B
:100CC00048800020FFF7A4FD10BDF0B504460D4696
:100CD000A018401E86B2E818401E87B238488088A7
:100CE00041F66311884231D13548807901282DD0F1
:100CF00033480088801A001B84B2E818401E83B273
:100D00002F494889FFF75CFC2012FFF75CFCE0B23A
:100D1000FFF759FCA118491EC1F30F20FFF753FC40
:100D2000A118491EC8B2FFF74EFC25498889FFF774
:100D300047FC2812FFF747FCE8B2FFF744FC181203
:100D4000FFF741FCD8B2FFF73EFC73E01C488088F7
:100D500045F2105188424DD119494889FFF730FCBE
:100D60002012FFF730FC16494989491C88B2FFF769
:100D700027FCE0B2FFF727FC11494989891C88B29A
:100D8000FFF71EFC3012FFF71EFC0D494989C91CF4
:100D900088B2FFF715FCF0B2FFF715FC0849888907
:100DA000FFF70EFC2812FFF70EFC05498989491C44
:100DB00088B2FFF705FCE8B2FFF705FC004907E041
:100DC00038000020140000200008006C6666044013
:100DD0008989891C88B2FFF7F3FB3812FFF7F3FB10
:100DE000FE498989C91C88B2FFF7EAFBF8B2FFF710
:100DF000EAFB1FE0F9494889FFF7E2FB2012FFF701
:100E0000E2FBE0B2FFF7DFFB3012FFF7DCFBF0B2F2
:100E1000FFF7D9FBF1498889FFF7D2FB2812FFF7CA
:100E2000D2FBE8B2FFF7CFFB3812FFF7CCFBF8B2EA
:100E3000FFF7C9FBF0BD70B504460026E7480588FA
:100E40004088454300210846FFF7F6FBFFF7D7FB34
:100E500000BF02E0E2480480761CAE42FAD370BDC7
:100E600000B59FB00121080203F07BFD01214FF482
:100E7000B47003F083FD0120ADF8780010208DF8E8
:100E80007B0003208DF87A001EA9D64803F0BAFA39
:100E90004CF23370ADF8780018208DF87B000320F9
:100EA0008DF87A001EA9D04803F0ACFA4FF6807096
:100EB000ADF8780018208DF87B0003208DF87A00BB
:100EC0001EA9CA4803F09EFA41F20100ADF878006D
:100ED00018208DF87B0003208DF87A001EA9C448E5
:100EE00003F090FA01200890002009900F200A904A
:100EF00000200B900C900D900E900190029003201A
:100F000003900020049005900690079006200F9013
:100F10000020109011901020129000201390159036
:100F20001490169017904FF480501890002019904C
:100F30004FF480401A9000201B9008A81C9001A834
:100F40001D900FA802F044FF0121062003F0A8F82D
:100F5000322002F096FDD320FFF732FBFFF737FB7C
:100F60009E498880FFF733FB9C498880FFF72FFB61
:100F70009A498880084680884FF6FF7101EA002070
:100F800096498880FFF723FB944989880843934951
:100F900088800846808849F2413188427DD004200B
:100FA000FFF70EFBFFF713FB8C498880FFF70FFB61
:100FB0008A498880FFF70BFB88498880084680882B
:100FC0004FF6FF7101EA002084498880FFF7FFFA9D
:100FD000824989880843814988800846808848F288
:100FE0005251884203D147F289707C4988807B48FE
:100FF000808847F289718842D0D0D420FFF7E0FA88
:10100000FFF7E5FA75498880FFF7E1FA73498880B0
:10101000FFF7DDFA71498880084680884FF6FF7136
:1010200001EA00206D498880FFF7D1FA6B49898871
:1010300008436A4988800846808845F21031884212
:101040005FD055214FF47040FFF7C9FAAA214FF243
:101050000100FFF7C4FA52214FF20200FFF7BFFA76
:1010600008214FF20300FFF7BAFA01214FF2040002
:10107000FFF7B5FA4FF44540FFF7A2FAFFF7A7FADA
:1010800056498880084680884FF6FF7101EA0020A3
:10109000524988804CF2015000E032E0FFF790FAAC
:1010A000FFF795FA4D49898808434C4988800846DE
:1010B000808845F21051884223D0A120FFF780FAA2
:1010C000FFF785FA45498880FFF781FA4349888010
:1010D000084680884FF6FF7101EA00203F4988806A
:1010E000FFF775FA3D49898808433C4988800846DE
:1010F000808845F26171884203D141F66310374917
:101100008880364881883BA003F0A2FE334880885F
:1011100049F24131884275D1CF20FFF751FA0020C2
:10112000FFF751FAC120FFF74EFA3020FFF74BFAD4
:10113000ED20FFF745FA6420FFF745FA0320FFF79B
:1011400042FA1220FFF73FFA8120FFF73CFAE8202D
:10115000FFF736FA8520FFF736FA1020FFF733FA4B
:101160007A20FFF730FACB20FFF72AFA3920FFF771
:101170002AFA2C20FFF727FA0020FFF724FA342060
:10118000FFF721FA0220FFF71EFAF720FFF718FAFF
:101190002020FFF718FAEA20FFF712FA0020FFF7E5
:1011A00012FA0020FFF70FFAC020FFF709FA1B2000
:1011B000FFF709FAC120FFF703FA0120FFF703FA4E
:1011C000C520FFF7FDF93020FFF7FDF93020FFF7CC
:1011D000FAF9C720FFF7F4F9B72014E0380000202F
:1011E0000008006C000C0140001401400018014090
:1011F00000200140204C43442049443A25780D0A00
:1012000000000000B4E0FFF7DEF93620FFF7D8F960
:101210004820FFF7D8F93A20FFF7D2F95520FFF719
:10122000D2F9B120FFF7CCF90020FFF7CCF91A2052
:10123000FFF7C9F9B620FFF7C3F90A20FFF7C3F992
:10124000A220FFF7C0F9F220FFF7BAF90020FFF75C
:10125000BAF92620FFF7B4F90120FFF7B4F9E0202E
:10126000FFF7AEF90F20FFF7AEF92A20FFF7ABF931
:101270002820FFF7A8F90820FFF7A5F90E20FFF7AF
:10128000A2F90820FFF79FF95420FFF79CF9A92045
:10129000FFF799F94320FFF796F90A20FFF793F932
:1012A0000F20FFF790F90020FFF78DF90020FFF7DE
:1012B0008AF90020FFF787F90020FFF784F9E12081
:1012C000FFF77EF90020FFF77EF91520FFF77BF985
:1012D0001720FFF778F90720FFF775F91120FFF7BE
:1012E00072F90620FFF76FF92B20FFF76CF95620F3
:1012F000FFF769F93C20FFF766F90520FFF763F96E
:101300001020FFF760F90F20FFF75DF93F20FFF78E
:101310005AF93F20FFF757F90F20FFF754F92B2018
:10132000FFF74EF90020FFF74EF90020FFF74BF9C9
:101330000120FFF748F93F20FFF745F92A20FFF782
:101340003FF90020FFF73FF90020FFF73CF90020AC
:10135000FFF739F9EF20FFF736F91120FFF730F9E1
:10136000782002F08EFB2920FFF72AF902F0A6B8B8
:10137000FE48808847F2897188427CD11120FFF7AE
:101380001FF9782002F07DFB3620FFF719F90020C5
:10139000FFF719F93A20FFF713F90520FFF713F9C2
:1013A000B220FFF70DF90C20FFF70DF90C20FFF725
:1013B0000AF90020FFF707F93320FFF704F933207B
:1013C000FFF701F9B720FFF7FBF83520FFF7FBF82F
:1013D000BB20FFF7F5F83220FFF7F5F8C020FFF744
:1013E000EFF80C20FFF7EFF8C220FFF7E9F8012033
:1013F000FFF7E9F8C320FFF7E3F81020FFF7E3F861
:10140000C420FFF7DDF82020FFF7DDF8C620FFF746
:10141000D7F80F20FFF7D7F8D020FFF7D1F8A42096
:10142000FFF7D1F8A120FFF7CEF8E020FFF7C8F8CA
:10143000D020FFF7C8F80020FFF7C5F80220FFF71B
:10144000C2F80720FFF7BFF80A20FFF7BCF82820F2
:10145000FFF7B9F83220FFF7B6F84420FFF7B3F8EA
:101460004220FFF7B0F80620FFF7ADF80E20FFF797
:10147000AAF8122000E056E0FFF7A5F81420FFF7C5
:10148000A2F81720FFF79FF8E120FFF799F8D02086
:10149000FFF799F80020FFF796F80220FFF793F87E
:1014A0000720FFF790F80A20FFF78DF82820FFF7B4
:1014B0008AF83120FFF787F85420FFF784F8472097
:1014C000FFF781F80E20FFF77EF81C20FFF77BF86E
:1014D0001720FFF778F81B20FFF775F81E20FFF79D
:1014E00072F82A20FFF76CF80020FFF76CF8002054
:1014F000FFF769F80020FFF766F8EF20FFF763F8C1
:101500002B20FFF75DF80020FFF75DF80020FFF7C4
:101510005AF80120FFF757F83F20FFF754F8292029
:10152000FFF74EF822E79148808845F21031884253
:1015300040F07C87ED20FFF743F80120FFF743F8E8
:10154000FE20FFF740F8EE20FFF73AF8DE20FFF725
:101550003AF82120FFF737F8F120FFF731F80120A2
:10156000FFF731F8DF20FFF72BF81020FFF72BF8FB
:10157000C420FFF725F88F20FFF725F8C620FFF7D6
:101580001FF80020FFF71FF8E220FFF71CF8E22009
:10159000FFF719F8E220FFF716F8BF20FFF710F861
:1015A000AA20FFF710F8B020FFF70AF80D20FFF788
:1015B0000AF80020FFF707F80D20FFF704F80020D5
:1015C000FFF701F81120FEF7FEFF0020FEF7FBFFFA
:1015D0001920FEF7F8FF0020FEF7F5FF2120FEF7A7
:1015E000F2FF0020FEF7EFFF2D20FEF7ECFF0020BA
:1015F000FEF7E9FF3D20FEF7E6FF0020FEF7E3FFE0
:101600005D20FEF7E0FF0020FEF7DDFF5D20FEF726
:10161000DAFF0020FEF7D7FFB120FEF7D1FF8020D0
:10162000FEF7D1FF0020FEF7CEFF8B20FEF7CBFFA9
:101630000020FEF7C8FF9620FEF7C5FF0020FEF74A
:10164000C2FFB220FEF7BCFF0020FEF7BCFF002067
:10165000FEF7B9FF0220FEF7B6FF0020FEF7B3FF4A
:101660000320FEF7B0FF0020FEF7ADFFB320FEF72A
:10167000A7FF0020FEF7A7FF0020FEF7A4FF002031
:10168000FEF7A1FF0020FEF79EFF0020FEF79BFF64
:101690000020FEF798FF0020FEF795FF0020FEF7E0
:1016A00092FF0020FEF78FFF0020FEF78CFF002046
:1016B000FEF789FF0020FEF786FF0020FEF783FF7C
:1016C0000020FEF780FF0020FEF77DFF0020FEF7E0
:1016D0007AFF0020FEF777FF0020FEF774FF00205E
:1016E000FEF771FF0020FEF76EFF0020FEF76BFF94
:1016F0000020FEF768FF0020FEF765FF0020FEF7E0
:1017000062FFB420FEF75CFF8B20FEF75CFF002039
:10171000FEF759FF9620FEF756FF0020FEF753FF15
:10172000A120FEF750FF0020FEF74DFFB520FEF789
:1017300047FF0220FEF747FF0020FEF744FF03208B
:10174000FEF741FF0020FEF73EFF0420FEF73BFFBF
:101750000020FEF738FFB620FEF732FF0020FEF72C
:1017600032FF0020FEF72FFFB72001E038000020F5
:10177000FEF726FF0020FEF726FF0020FEF723FFDE
:101780003F20FEF720FF0020FEF71DFF5E20FEF742
:101790001AFF0020FEF717FF6420FEF714FF002059
:1017A000FEF711FF8C20FEF70EFF0020FEF70BFF67
:1017B000AC20FEF708FF0020FEF705FFDC20FEF757
:1017C00002FF0020FEF7FFFE7020FEF7FCFE002067
:1017D000FEF7F9FE9020FEF7F6FE0020FEF7F3FE7E
:1017E000EB20FEF7F0FE0020FEF7EDFEDC20FEF71A
:1017F000EAFE0020FEF7E7FEB820FEF7E1FE00203B
:10180000FEF7E1FE0020FEF7DEFE0020FEF7DBFE25
:101810000020FEF7D8FE0020FEF7D5FE0020FEF7E0
:10182000D2FE0020FEF7CFFE0020FEF7CCFEBA204D
:10183000FEF7C6FE2420FEF7C6FE0020FEF7C3FE1C
:101840000020FEF7C0FE0020FEF7BDFEC120FEF71F
:10185000B7FE2020FEF7B7FE0020FEF7B4FE5420AE
:10186000FEF7B1FE0020FEF7AEFEFF20FEF7ABFE56
:101870000020FEF7A8FEC220FEF7A2FE0A20FEF717
:10188000A2FE0020FEF79FFE0420FEF79CFE002033
:10189000FEF799FEC320FEF793FE3C20FEF793FE71
:1018A0000020FEF790FE3A20FEF78DFE0020FEF7A6
:1018B0008AFE3920FEF787FE0020FEF784FE3720DF
:1018C000FEF781FE0020FEF77EFE3C20FEF77BFE49
:1018D0000020FEF778FE3620FEF775FE0020FEF7AA
:1018E00072FE3220FEF76FFE0020FEF76CFE2F2006
:1018F000FEF769FE0020FEF766FE2C20FEF763FE71
:101900000020FEF760FE2920FEF75DFE0020FEF7B6
:101910005AFE2620FEF757FE0020FEF754FE242034
:10192000FEF751FE0020FEF74EFE2420FEF74BFE90
:101930000020FEF748FE2320FEF745FE0020FEF7BC
:1019400042FE3C20FEF73FFE0020FEF73CFE362024
:10195000FEF739FE0020FEF736FE3220FEF733FE9A
:101960000020FEF730FE2F20FEF72DFE0020FEF7B0
:101970002AFE2C20FEF727FE0020FEF724FE292059
:10198000FEF721FE0020FEF71EFE2620FEF71BFEBE
:101990000020FEF718FE2420FEF715FE0020FEF7BB
:1019A00012FE2420FEF70FFE0020FEF70CFE23207F
:1019B000FEF709FE0020FEF706FEC420FEF700FE3B
:1019C0006220FEF700FE0020FEF7FDFD0520FEF779
:1019D000FAFD0020FEF7F7FD8420FEF7F4FD00205D
:1019E000FEF7F1FDF020FEF7EEFD0020FEF7EBFD27
:1019F0001820FEF7E8FD0020FEF7E5FDA420FEF725
:101A0000E2FD0020FEF7DFFD1820FEF7DCFD0020E0
:101A1000FEF7D9FD5020FEF7D6FD0020FEF7D3FDDE
:101A20000C20FEF7D0FD0020FEF7CDFD1720FEF7BD
:101A3000CAFD0020FEF7C7FD9520FEF7C4FD00207B
:101A4000FEF7C1FDF320FEF7BEFD0020FEF7BBFD53
:101A5000E620FEF7B8FD0020FEF7B5FDC520FEF735
:101A6000AFFD3220FEF7AFFD0020FEF7ACFD4420B5
:101A7000FEF7A9FD0020FEF7A6FD6520FEF7A3FDF9
:101A80000020FEF7A0FD7620FEF79DFD0020FEF76A
:101A90009AFD8820FEF797FD0020FEF794FDC620F2
:101AA000FEF78EFD2020FEF78EFD0020FEF78BFD59
:101AB0001720FEF788FD0020FEF785FD0120FEF7C8
:101AC00082FD0020FEF77FFDC720FEF779FD002094
:101AD000FEF779FD0020FEF776FD0020FEF773FD8E
:101AE0000020FEF770FDC820FEF76AFD0020FEF71B
:101AF0006AFD0020FEF767FD0020FEF764FD002070
:101B0000FEF761FDC920FEF75BFD0020FEF75BFDDF
:101B10000020FEF758FD0020FEF755FD0020FEF7DF
:101B200052FD0020FEF74FFD0020FEF74CFD002087
:101B3000FEF749FD0020FEF746FD0020FEF743FDBD
:101B40000020FEF740FD0020FEF73DFD0020FEF7DF
:101B50003AFD0020FEF737FD0020FEF734FD00209F
:101B6000FEF731FD0020FEF72EFDE020FEF728FDF8
:101B70001620FEF728FD0020FEF725FD1C20FEF7AD
:101B800022FD0020FEF71FFD2120FEF71CFD002096
:101B9000FEF719FD3620FEF716FD0020FEF713FDB7
:101BA0004620FEF710FD0020FEF70DFD5220FEF747
:101BB0000AFD0020FEF707FD6420FEF704FD00206B
:101BC000FEF701FD7A20FEF7FEFC0020FEF7FBFC8D
:101BD0008B20FEF7F8FC0020FEF7F5FC9920FEF7BD
:101BE000F2FC0020FEF7EFFCA820FEF7ECFC002042
:101BF000FEF7E9FCB920FEF7E6FC0020FEF7E3FC67
:101C0000C420FEF7E0FC0020FEF7DDFCCA20FEF752
:101C1000DAFC0020FEF7D7FCD220FEF7D4FC00202F
:101C2000FEF7D1FCD920FEF7CEFC0020FEF7CBFC5E
:101C3000E020FEF7C8FC0020FEF7C5FCF320FEF70D
:101C4000C2FC0020FEF7BFFCE120FEF7B9FC162025
:101C5000FEF7B9FC0020FEF7B6FC1C20FEF7B3FC33
:101C60000020FEF7B0FC2220FEF7ADFC0020FEF7BE
:101C7000AAFC3620FEF7A7FC0020FEF7A4FC4520B6
:101C8000FEF7A1FC0020FEF79EFC5220FEF79BFC15
:101C90000020FEF798FC6420FEF795FC0020FEF77C
:101CA00092FC7A20FEF78FFC0020FEF78CFC8B2044
:101CB000FEF789FC0020FEF786FC9920FEF783FCE6
:101CC0000020FEF780FCA820FEF77DFC0020FEF738
:101CD0007AFCB920FEF777FC0020FEF774FCC420E4
:101CE000FEF771FC0020FEF76EFCCA20FEF76BFCCD
:101CF0000020FEF768FCD220FEF765FC0020FEF70E
:101D000062FCD820FEF75FFC0020FEF75CFCE020C0
:101D1000FEF759FC0020FEF756FCF320FEF753FCBB
:101D20000020FEF750FCE220FEF74AFC0520FEF7FB
:101D30004AFC0020FEF747FC0B20FEF744FC002085
:101D4000FEF741FC1B20FEF73EFC0020FEF73BFCAB
:101D50003420FEF738FC0020FEF735FC4420FEF767
:101D600032FC0020FEF72FFC4F20FEF72CFC002059
:101D7000FEF729FC6120FEF726FC0020FEF723FC7D
:101D80007920FEF720FC0020FEF71DFC8820FEF7DE
:101D90001AFC0020FEF717FC9720FEF714FC002029
:101DA000FEF711FCA620FEF70EFC0020FEF70BFC50
:101DB000B720FEF708FC0020FEF705FCC220FEF766
:101DC00002FC0020FEF7FFFBC720FEF7FCFB002013
:101DD000FEF7F9FBD120FEF7F6FB0020FEF7F3FB40
:101DE000D620FEF7F0FB0020FEF7EDFBDD20FEF72E
:101DF000EAFB0020FEF7E7FBF320FEF7E4FB002000
:101E0000FEF7E1FBE320FEF7DBFB0520FEF7DBFB43
:101E10000020FEF7D8FB0A20FEF7D5FB0020FEF7D6
:101E2000D2FB1C20FEF7CFFB0020FEF7CCFB3320BB
:101E3000FEF7C9FB0020FEF7C6FB4420FEF7C3FBFC
:101E40000020FEF7C0FB5020FEF7BDFB0020FEF790
:101E5000BAFB6220FEF7B7FB0020FEF7B4FB782048
:101E6000FEF7B1FB0020FEF7AEFB8820FEF7ABFBD0
:101E70000020FEF7A8FB9720FEF7A5FB0020FEF749
:101E8000A2FBA620FEF79FFB0020FEF79CFBB720DD
:101E9000FEF799FB0020FEF796FBC220FEF793FBAE
:101EA0000020FEF790FBC720FEF78DFB0020FEF719
:101EB0008AFBD120FEF787FB0020FEF784FBD520AC
:101EC000FEF781FB0020FEF77EFBDD20FEF77BFBAB
:101ED0000020FEF778FBF320FEF775FB0020FEF7ED
:101EE00072FBE420FEF76CFB0120FEF76CFB002088
:101EF000FEF769FB0120FEF766FB0020FEF763FB9F
:101F00000220FEF760FB0020FEF75DFB2A20FEF7B3
:101F10005AFB0020FEF757FB3C20FEF754FB002045
:101F2000FEF751FB4B20FEF74EFB0020FEF74BFB6C
:101F30005D20FEF748FB0020FEF745FB7420FEF70E
:101F400042FB0020FEF73FFB8420FEF73CFB002015
:101F5000FEF739FB9320FEF736FB0020FEF733FB3C
:101F6000A220FEF730FB0020FEF72DFBB320FEF78A
:101F70002AFB0020FEF727FBBE20FEF724FB0020F3
:101F8000FEF721FBC420FEF71EFB0020FEF71BFB23
:101F9000CD20FEF718FB0020FEF715FBD320FEF73F
:101FA00012FB0020FEF70FFBDD20FEF70CFB0020EC
:101FB000FEF709FBF320FEF706FB0020FEF703FB0C
:101FC000E520FEF7FDFA0020FEF7FDFA0020FEF7FF
:101FD000FAFA0020FEF7F7FA0020FEF7F4FA0220E2
:101FE000FEF7F1FA0020FEF7EEFA2920FEF7EBFAF1
:101FF0000020FEF7E8FA3C20FEF7E5FA0020FEF7A5
:10200000E2FA4B20FEF7DFFA0020FEF7DCFA5D2053
:10201000FEF7D9FA0020FEF7D6FA7420FEF7D3FABD
:102020000020FEF7D0FA8420FEF7CDFA0020FEF75C
:10203000CAFA9320FEF7C7FA0020FEF7C4FAA220DE
:10204000FEF7C1FA0020FEF7BEFAB320FEF7BBFA96
:102050000020FEF7B8FABE20FEF7B5FA0020FEF722
:10206000B2FAC420FEF7AFFA0020FEF7ACFACD209A
:10207000FEF7A9FA0020FEF7A6FAD320FEF7A3FA8E
:102080000020FEF7A0FADC20FEF79DFA0020FEF704
:102090009AFAF320FEF797FA0020FEF794FAE6206A
:1020A000FEF78EFA1120FEF78EFA0020FEF78BFA6B
:1020B0003420FEF788FA0020FEF785FA5620FEF756
:1020C00082FA0020FEF77FFA7620FEF77CFA0020E5
:1020D000FEF779FA7720FEF776FA0020FEF773FA1A
:1020E0006620FEF770FA0020FEF76DFA8820FEF7F2
:1020F0006AFA0020FEF767FA9920FEF764FA0020DA
:10210000FEF761FABB20FEF75EFA0020FEF75BFAED
:102110009920FEF758FA0020FEF755FA6620FEF7E0
:1021200052FA0020FEF74FFA5520FEF74CFA002035
:10213000FEF749FA5520FEF746FA0020FEF743FA6B
:102140004520FEF740FA0020FEF73DFA4320FEF757
:102150003AFA0020FEF737FA4420FEF734FA00205E
:10216000FEF731FAE720FEF72BFA3220FEF72BFAC2
:102170000020FEF728FA5520FEF725FA0020FEF78A
:1021800022FA7620FEF71FFA0020FEF71CFA6620DE
:10219000FEF719FA0020FEF716FA6720FEF713FA89
:1021A0000020FEF710FA6720FEF70DFA0020FEF778
:1021B0000AFA8720FEF707FA0020FEF704FA9920B2
:1021C000FEF701FA0020FEF7FEF9BB20FEF7FBF94F
:1021D0000020FEF7F8F99920FEF7F5F90020FEF748
:1021E000F2F97720FEF7EFF90020FEF7ECF9442032
:1021F000FEF7E9F90020FEF7E6F95620FEF7E3F9CD
:102200000020FEF7E0F92320FEF7DDF90020FEF7BD
:10221000DAF93320FEF7D7F90020FEF7D4F945208C
:10222000FEF7D1F90020FEF7CEF9E820FEF7C8F955
:102230000020FEF7C8F90020FEF7C5F99920FEF747
:10224000C2F90020FEF7BFF98720FEF7BCF9002095
:10225000FEF7B9F98820FEF7B6F90020FEF7B3F9CA
:102260007720FEF7B0F90020FEF7ADF96620FEF703
:10227000AAF90020FEF7A7F98820FEF7A4F90020AC
:10228000FEF7A1F9AA20FEF79EF90020FEF79BF9C0
:10229000BB20FEF798F90020FEF795F99920FEF78C
:1022A00092F90020FEF78FF96620FEF78CF90020E6
:1022B000FEF789F95520FEF786F90020FEF783F92D
:1022C0005520FEF780F90020FEF77DF94420FEF747
:1022D0007AF90020FEF777F94420FEF774F9002020
:1022E000FEF771F95520FEF76EF90020FEF76BF945
:1022F000E920FEF765F9AA20FEF765F90020FEF750
:1023000062F90020FEF75FF90020FEF75CF900207B
:10231000FEF756F9AA20FEF756F9CF20FEF750F93E
:102320000020FEF750F90020FEF74DF90020FEF7DF
:102330004AF90020FEF747F90020FEF744F9002093
:10234000FEF741F90020FEF73EF90020FEF73BF9C9
:102350000020FEF738F90020FEF735F90020FEF7DF
:1023600032F90020FEF72FF90020FEF72CF90020AB
:10237000FEF729F90020FEF726F90020FEF723F9E1
:102380000020FEF720F9F020FEF71AF90020FEF7F2
:102390001AF95020FEF717F90020FEF714F9002073
:1023A000FEF711F90020FEF70EF9F320FEF708F909
:1023B0000020FEF708F9F920FEF702F90620FEF7E3
:1023C00002F91020FEF7FFF82920FEF7FCF80020A4
:1023D000FEF7F9F83A20FEF7F3F85520FEF7F3F888
:1023E0001120FEF7EDF8642001F04BFB2920FEF7E9
:1023F000E7F83520FEF7E4F80020FEF7E4F8512076
:10240000FEF7DEF8FF20FEF7DEF85320FEF7D8F8DF
:102410002C20FEF7D8F85520FEF7D2F88220FEF7E0
:10242000D2F82C20FEF7CCF801F048B8FE4880889E
:1024300045F2105188427DD155214FF47040FEF78E
:10244000CEF8AA214FF20100FEF7C9F852214FF24F
:102450000200FEF7C4F808214FF20300FEF7BFF8B0
:1024600001214FF20400FEF7BAF80D214FF430407D
:10247000FEF7B5F80D214BF20100FEF7B0F80D2183
:102480004BF20200FEF7ABF834214FF43640FEF772
:10249000A6F834214BF20160FEF7A1F834214BF28B
:1024A0000260FEF79CF80D214FF43140FEF797F8DB
:1024B0000D214BF20110FEF792F80D214BF20210A4
:1024C000FEF78DF834214FF43740FEF788F83421B9
:1024D0004BF20170FEF783F834214BF20270FEF7E5
:1024E0007EF800214FF43240FEF779F800214BF2DC
:1024F0000120FEF774F800214BF20220FEF76FF87E
:1025000024214FF43840FEF76AF824214BF60100ED
:10251000FEF765F824214BF60200FEF760F8012172
:102520004FF43F40FEF75BF80F214FF43340FEF7C6
:1025300056F800E0FDE30F214BF20130FEF74FF8B3
:102540000F214BF20230FEF74AF834214FF43940A4
:10255000FEF745F834214BF60110FEF740F8342120
:102560004BF60210FEF73BF808214FF43540FEF71A
:1025700036F808214BF20150FEF731F808214BF2F2
:102580000250FEF72CF803214FF44240FEF727F8E3
:1025900024214FF43A40FEF722F824214BF6012083
:1025A000FEF71DF824214BF60220FEF718F8002153
:1025B0004FF43C40FEF713F878214BF60140FEF74C
:1025C0000EF800214BF60240FEF709F800214FF407
:1025D0003D40FEF704F878214BF60150FDF7FFFF70
:1025E00000214BF60250FDF7FAFF00214FF43E4068
:1025F000FDF7F5FF64214BF60160FDF7F0FF0021C8
:102600004FF45140FDF7EBFF33214DF20110FDF780
:10261000E6FF00214DF20210FDF7E1FF34214DF2FB
:102620000310FDF7DCFF00214DF20410FDF7D7FF8A
:102630003A214DF20510FDF7D2FF00214DF20610B0
:10264000FDF7CDFF4A214DF20710FDF7C8FF00212D
:102650004DF20810FDF7C3FF5C214DF20910FDF7A4
:10266000BEFF00214DF20A10FDF7B9FF81214DF2A6
:102670000B10FDF7B4FF00214DF20C10FDF7AFFF7A
:10268000A6214DF20D10FDF7AAFF00214DF20E100C
:10269000FDF7A5FFE5214DF20F10FDF7A0FF012189
:1026A0004DF21010FDF79BFF13214DF21110FDF7B5
:1026B00096FF01214DF21210FDF791FF54214DF2CA
:1026C0001310FDF78CFF01214DF21410FDF787FF69
:1026D00082214DF21510FDF782FF01214DF21610F7
:1026E000FDF77DFFCA214DF21710FDF778FF02219B
:1026F0004DF21810FDF773FF00214DF21910FDF790
:102700006EFF02214DF21A10FDF769FF01214DF213
:102710001B10FDF764FF02214DF21C10FDF75FFF57
:1027200034214DF21D10FDF75AFF02214DF21E100B
:10273000FDF755FF67214DF21F10FDF750FF0221F5
:102740004DF22010FDF74BFF84214DF22110FDF7D3
:1027500046FF02214DF22210FDF741FFA4214DF268
:102760002310FDF73CFF02214DF22410FDF737FF47
:10277000B7214DF22510FDF732FF02214DF2261050
:10278000FDF72DFFCF214DF22710FDF728FF022185
:102790004DF22810FDF723FFDE214DF22910FDF741
:1027A0001EFF02214DF22A10FDF719FFF2214DF212
:1027B0002B10FDF714FF02214DF22C10FDF70FFF37
:1027C000FE214DF22D10FDF70AFF03214DF22E10D0
:1027D000FDF705FF10214DF22F10FDF700FF03213B
:1027E0004DF23010FDF7FBFE33214DF23110FDF7B5
:1027F000F6FE03214DF23210FDF7F1FE6D214DF290
:102800003310FDF7ECFE00214FF45240FDF7E7FED8
:1028100033214DF20120FDF7E2FE00214DF20220AE
:10282000FDF7DDFE342101E0380000204DF20320E9
:10283000FDF7D5FE00214DF20420FDF7D0FE3A2130
:102840004DF20520FDF7CBFE00214DF20620FDF7ED
:10285000C6FE4A214DF20720FDF7C1FE00214DF2D0
:102860000820FDF7BCFE5C214DF20920FDF7B7FE04
:1028700000214DF20A20FDF7B2FE81214DF20B201E
:10288000FDF7ADFE00214DF20C20FDF7A8FEA621BC
:102890004DF20D20FDF7A3FE00214DF20E20FDF7B5
:1028A0009EFEE5214DF20F20FDF799FE01214DF22C
:1028B0001020FDF794FE13214DF21120FDF78FFE3D
:1028C00001214DF21220FDF78AFE54214DF2132012
:1028D000FDF785FE01214DF21420FDF780FE8221D7
:1028E0004DF21520FDF77BFE01214DF21620FDF77C
:1028F00076FECA214DF21720FDF771FE02214DF23E
:102900001820FDF76CFE00214DF21920FDF767FE3F
:1029100002214DF21A20FDF762FE01214DF21B202B
:10292000FDF75DFE02214DF21C20FDF758FE34211B
:102930004DF21D20FDF753FE02214DF21E20FDF742
:102940004EFE67214DF21F20FDF749FE02214DF298
:102950002020FDF744FE84214DF22120FDF73FFEAB
:1029600002214DF22220FDF73AFEA4214DF2232050
:10297000FDF735FE02214DF22420FDF730FEB72190
:102980004DF22520FDF72BFE02214DF22620FDF70A
:1029900026FECF214DF22720FDF721FE02214DF228
:1029A0002820FDF71CFEDE214DF22920FDF717FE41
:1029B00002214DF22A20FDF712FEF2214DF22B20CA
:1029C000FDF70DFE02214DF22C20FDF708FEFE2141
:1029D0004DF22D20FDF703FE03214DF22E20FDF7D1
:1029E000FEFD10214DF22F20FDF7F9FD03214DF2E0
:1029F0003020FDF7F4FD33214DF23120FDF7EFFDDE
:102A000003214DF23220FDF7EAFD6D214DF2332016
:102A1000FDF7E5FD00214FF45340FDF7E0FD3321C4
:102A20004DF20130FDF7DBFD00214DF20230FDF7E4
:102A3000D6FD34214DF20330FDF7D1FD00214DF2DA
:102A40000430FDF7CCFD3A214DF20530FDF7C7FD0E
:102A500000214DF20630FDF7C2FD4A214DF207304C
:102A6000FDF7BDFD00214DF20830FDF7B8FD5C21FA
:102A70004DF20930FDF7B3FD00214DF20A30FDF7AC
:102A8000AEFD81214DF20B30FDF7A9FD00214DF285
:102A90000C30FDF7A4FDA6214DF20D30FDF79FFD92
:102AA00000214DF20E30FDF79AFDE5214DF20F3079
:102AB000FDF795FD01214DF21030FDF790FD13213A
:102AC0004DF21130FDF78BFD01214DF21230FDF773
:102AD00086FD54214DF21330FDF781FD01214DF2A9
:102AE0001430FDF77CFD82214DF21530FDF777FDA6
:102AF00001214DF21630FDF772FDCA214DF217305B
:102B0000FDF76DFD02214DF21830FDF768FD002143
:102B10004DF21930FDF763FD02214DF21A30FDF739
:102B20005EFD01214DF21B30FDF759FD02214DF2F2
:102B30001C30FDF754FD34214DF21D30FDF74FFDE3
:102B400002214DF21E30FDF74AFD67214DF21F3084
:102B5000FDF745FD02214DF22030FDF740FD8421B7
:102B60004DF22130FDF73BFD02214DF22230FDF701
:102B700036FDA4214DF22330FDF731FD02214DF247
:102B80002430FDF72CFDB7214DF22530FDF727FD50
:102B900002214DF22630FDF722FDCF214DF22730E4
:102BA000FDF71DFD02214DF22830FDF718FDDE2155
:102BB0004DF22930FDF713FD02214DF22A30FDF7C9
:102BC0000EFDF2214DF22B30FDF709FD02214DF2F1
:102BD0002C30FDF704FDFE214DF22D30FDF7FFFCFA
:102BE00003214DF22E30FDF7FAFC10214DF22F306B
:102BF000FDF7F5FC03214DF23030FDF7F0FC3321F9
:102C00004DF23130FDF7EBFC03214DF23230FDF790
:102C1000E6FC6D214DF23330FDF7E1FC00214FF46D
:102C20005440FDF7DCFC33214DF20140FDF7D7FCA9
:102C300000214DF20240FDF7D2FC34214DF2034059
:102C4000FDF7CDFC00214DF20440FDF7C8FC3A2110
:102C50004DF20540FDF7C3FC00214DF20640FDF7A3
:102C6000BEFC4A214DF20740FDF7B9FC00214DF2B0
:102C70000840FDF7B4FC5C214DF20940FDF7AFFCC4
:102C800000214DF20A40FDF7AAFC81214DF20B40D4
:102C9000FDF7A5FC00214DF20C40FDF7A0FCA6219C
:102CA0004DF20D40FDF79BFC00214DF20E40FDF76B
:102CB00096FCE5214DF20F40FDF791FC01214DF20C
:102CC0001040FDF78CFC13214DF21140FDF787FCFD
:102CD00001214DF21240FDF782FC54214DF21340C8
:102CE000FDF77DFC01214DF21440FDF778FC8221B7
:102CF0004DF21540FDF773FC01214DF21640FDF732
:102D00006EFCCA214DF21740FDF769FC02214DF21D
:102D10001840FDF764FC00214DF21940FDF75FFCFF
:102D200002214DF21A40FDF75AFC01214DF21B40E1
:102D300000E005E3FDF753FC02214DF21C40FDF7D6
:102D40004EFC34214DF21D40FDF749FC02214DF2AD
:102D50001E40FDF744FC67214DF21F40FDF73FFC8C
:102D600002214DF22040FDF73AFC84214DF2214032
:102D7000FDF735FC02214DF22240FDF730FCA42185
:102D80004DF22340FDF72BFC02214DF22440FDF7CC
:102D900026FCB7214DF22540FDF721FC02214DF222
:102DA0002640FDF71CFCCF214DF22740FDF717FC14
:102DB00002214DF22840FDF712FCDE214DF22940A0
:102DC000FDF70DFC02214DF22A40FDF708FCF2212F
:102DD0004DF22B40FDF703FC02214DF22C40FDF794
:102DE000FEFBFE214DF22D40FDF7F9FB03214DF2D4
:102DF0002E40FDF7F4FB10214DF22F40FDF7EFFBC5
:102E000003214DF23040FDF7EAFB33214DF2314012
:102E1000FDF7E5FB03214DF23240FDF7E0FB6D21AC
:102E20004DF23340FDF7DBFB00214FF45540FDF739
:102E3000D6FB33214DF20150FDF7D1FB00214DF2BD
:102E40000250FDF7CCFB34214DF20350FDF7C7FBD8
:102E500000214DF20450FDF7C2FB3A214DF205501E
:102E6000FDF7BDFB00214DF20650FDF7B8FB4A21EE
:102E70004DF20750FDF7B3FB00214DF20850FDF76E
:102E8000AEFB5C214DF20950FDF7A9FB00214DF28C
:102E90000A50FDF7A4FB81214DF20B50FDF79FFB7B
:102EA00000214DF20C50FDF79AFBA6214DF20D507A
:102EB000FDF795FB00214DF20E50FDF790FBE5214B
:102EC0004DF20F50FDF78BFB01214DF21050FDF735
:102ED00086FB13214DF21150FDF781FB01214DF2CC
:102EE0001250FDF77CFB54214DF21350FDF777FB98
:102EF00001214DF21450FDF772FB82214DF2155065
:102F0000FDF76DFB01214DF21650FDF768FBCA215C
:102F10004DF21750FDF763FB02214DF21850FDF7FB
:102F20005EFB00214DF21950FDF759FB02214DF2D5
:102F30001A50FDF754FB01214DF21B50FDF74FFBDA
:102F400002214DF21C50FDF74AFB34214DF21D5079
:102F5000FDF745FB02214DF21E50FDF740FB6721B6
:102F60004DF21F50FDF73BFB02214DF22050FDF7C3
:102F700036FB84214DF22150FDF731FB02214DF249
:102F80002250FDF72CFBA4214DF22350FDF727FB27
:102F900002214DF22450FDF722FBB7214DF22550BE
:102FA000FDF71DFB02214DF22650FDF718FBCF2146
:102FB0004DF22750FDF713FB02214DF22850FDF78B
:102FC0000EFBDE214DF22950FDF709FB02214DF2E7
:102FD0002A50FDF704FBF2214DF22B50FDF7FFFACA
:102FE00002214DF22C50FDF7FAFAFE214DF22D5040
:102FF000FDF7F5FA03214DF22E50FDF7F0FA1021FE
:103000004DF22F50FDF7EBFA03214DF23050FDF752
:10301000E6FA33214DF23150FDF7E1FA03214DF28A
:103020003250FDF7DCFA6D214DF23350FDF7D7FA3F
:1030300000214FF45640FDF7D2FA33214DF20160E2
:10304000FDF7CDFA00214DF20260FDF7C8FA3421F8
:103050004DF20360FDF7C3FA00214DF20460FDF765
:10306000BEFA3A214DF20560FDF7B9FA00214DF2A2
:103070000660FDF7B4FA4A214DF20760FDF7AFFA9A
:1030800000214DF20860FDF7AAFA5C214DF20960BB
:10309000FDF7A5FA00214DF20A60FDF7A0FA8121A3
:1030A0004DF20B60FDF79BFA00214DF20C60FDF72D
:1030B00096FAA6214DF20D60FDF791FA00214DF22E
:1030C0000E60FDF78CFAE5214DF20F60FDF787FAEF
:1030D00001214DF21060FDF782FA13214DF21160CB
:1030E000FDF77DFA01214DF21260FDF778FA5421C7
:1030F0004DF21360FDF773FA01214DF21460FDF7F4
:103100006EFA82214DF21560FDF769FA01214DF248
:103110001660FDF764FACA214DF21760FDF75FFAF9
:1031200002214DF21860FDF75AFA00214DF21960A4
:10313000FDF755FA02214DF21A60FDF750FA012110
:103140004DF21B60FDF74BFA02214DF21C60FDF7BA
:1031500046FA34214DF21D60FDF741FA02214DF28D
:103160001E60FDF73CFA67214DF21F60FDF737FA4C
:1031700002214DF22060FDF732FA84214DF22160E8
:10318000FDF72DFA02214DF22260FDF728FAA42165
:103190004DF22360FDF723FA02214DF22460FDF782
:1031A0001EFAB7214DF22560FDF719FA02214DF202
:1031B0002660FDF714FACF214DF22760FDF70FFAD4
:1031C00002214DF22860FDF70AFADE214DF2296056
:1031D000FDF705FA02214DF22A60FDF700FAF2210F
:1031E0004DF22B60FDF7FBF902214DF22C60FDF74B
:1031F000F6F9FE214DF22D60FDF7F1F903214DF2B4
:103200002E60FDF7ECF910214DF22F60FDF7E7F984
:1032100003214DF23060FDF7E2F933214DF23160C8
:10322000FDF7DDF903214DF23260FDF7D8F96D218C
:103230004DF23360FDF7D3F955214FF47040FDF79F
:10324000CEF9AA214FF20100FDF7C9F952214FF240
:103250000200FDF7C4F908214FF20300FDF7BFF9A2
:1032600000214FF20400FDF7BAF9CC214FF43140B0
:10327000FDF7B5F900214BF20110FDF7B0F905217A
:103280004FF43640FDF7ABF970214FF43740FDF7AE
:10329000A6F970214BF20170FDF7A1F901214FF45D
:1032A0003840FDF79CF903214BF60100FDF797F933
:1032B00003214BF60200FDF792F903214BF60300C0
:1032C000FDF78DF902214FF43C40FDF788F900210C
:1032D0004BF60140FDF783F900214BF60240FDF764
:1032E0007EF9D0214FF44940FDF779F902214CF6DF
:1032F0000110FDF774F950214CF60210FDF76FF93B
:1033000050214CF60310FDF76AF950214CF60410D9
:10331000FDF765F900214FF45450FDF760F9552190
:103320004FF46850FDF75BF94FF48850FDF748F90A
:10333000782000F082FB4FF42450FDF741F9BDE006
:10334000FE48808841F663118842F8D1E220FDF7FB
:1033500037F91D20FDF737F90220FDF734F9042075
:10336000FDF731F9642000F068FBE020FDF728F953
:103370000120FDF728F90A2000F083FBE020FDF78B
:103380001FF90320FDF71FF90C2000F07AFB012044
:10339000FDF716F90A2000F074FBE620FDF710F99E
:1033A0002F20FDF710F9FF20FDF70DF9FF20FDF7A5
:1033B0000AF9B020FDF704F92020FDF704F90020F8
:1033C000FDF701F90320FDF7FEF840F21F30FDF78D
:1033D000FAF80120FDF7F7F840F2DF10FDF7F3F8F7
:1033E0000020FDF7F0F8B420FDF7EAF80420FDF71F
:1033F000EAF840F21F40FDF7E6F80020FDF7E3F899
:103400002E20FDF7E0F80020FDF7DDF80020FDF7A5
:10341000DAF80020FDF7D7F80020FDF7D4F8B62041
:10342000FDF7CEF80220FDF7CEF84FF40370FDF75C
:10343000CAF80020FDF7C7F81720FDF7C4F81520DB
:10344000FDF7C1F80020FDF7BEF80020FDF7BBF83E
:10345000F020FDF7B5F80320FDF7B5F82920FDF7BA
:10346000AFF8D020FDF7ACF80020FDF7ACF8BE2097
:10347000FDF7A6F80520FDF7A6F8FE20FDF7A3F856
:103480000120FDF7A0F80020FDF79DF80020FDF7D2
:103490009AF80020FDF797F8B820FDF791F803207F
:1034A000FDF791F80120FDF78EF8BA20FDF788F8B6
:1034B0000120FDF788F86420FDF74AFB0020FDF7A6
:1034C0006FFB01209E4908604FF6FF70FDF7B3FCCB
:1034D0001FB000BD2DE9F04F05460E461746984631
:1034E000DDF824A04FF0000B781B401C1FFA80FB76
:1034F000344613E021462846FDF79EF8FDF77FF895
:103500004FF0000906E08F48A0F800A009F1010083
:103510001FFA80F9D945F6DB601C84B24445E9DD29
:10352000BDE8F08F2DE9F84F07460D4690469946C5
:10353000DDF828B0A8EB0700401C1FFA80FAA9EBC1
:103540000500401C80B20090002414E0281981B2CC
:103550003846FDF771F8FDF752F8002607E004FB46
:103560000A603BF8100077490880701C86B2564507
:10357000F5DB601C84B200988442E7DBBDE8F88F7D
:103580002DE9FF4F84B081468A46002003900290C7
:103590000698A0EB09050798A0EB0A06CDF8049061
:1035A000CDF800A0002D01DD012705E00DB90027B1
:1035B00002E04FF0FF376D42002E02DD4FF00108B0
:1035C00006E016B94FF0000802E04FF0FF387642EF
:1035D000B54201DD2C4600E034464FF0000B21E0FF
:1035E000009A91B2019A90B2FDF72FFA03982844FD
:1035F00003900298304402900398A04205DD03989E
:10360000001B03900198384401900298A04205DD08
:103610000298001B02900098404400900BF10100BA
:103620001FFA80FB601C8345DADD08B0BDE8F08F2F
:10363000F0B504460D4616461F462B46324629462F
:103640002046FFF79DFF3B46224629462046FFF7CE
:1036500097FF3B46324639462046FFF791FF3B46EF
:10366000324629463046FFF78BFFF0BD2DE9F04387
:1036700006460F469046002445460320A0EB480925
:103680003CE07A1B91B2321990B2FDF7DEF93A1B99
:1036900091B2721990B2FDF7D8F93A1991B2721934
:1036A00090B2FDF7D2F97A1991B2321990B2FDF7C2
:1036B000CCF97A1991B2321B90B2FDF7C6F93A19DA
:1036C00091B2721B90B2FDF7C0F97A1B91B2321B16
:1036D00090B2FDF7BAF93A1B91B2721B90B2FDF7A6
:1036E000B4F9641CB9F1000F03DAA000801D814415
:1036F00004E0601B80000A3081446D1EAC42C0DDD6
:10370000BDE8F0832DE9F84F80460E4617461C466B
:10371000B3462046E31704EB5373DB1021464FEA10
:10372000E47C04EB5C7C4FEAEC0CA4EBCC0CBCF12D
:10373000000F09D04FF0010C08E000003800002015
:10374000808121420008006C4FF0000C6344224647
:1037500004EBD27C4FEA6C0C03FB0CF3DBB200935E
:10376000A7F12000C7B2002556E00C2C07D107EBCB
:1037700047009F4901EB800010F8059013E0102CE2
:1037800005D19C4800EB071010F805900BE0182CB1
:1037900007D107EBC700984901EB800010F80590AE
:1037A00001E0BDE8F88F4FF0000A2FE009F080003B
:1037B00030B19248028831464046FDF754F907E09F
:1037C0000A9828B98E48028831464046FDF74BF9E1
:1037D0004FEA49604FEA1069701C86B289484088F8
:1037E000B04200DCDDE7A6EB0B00A0420AD15E464A
:1037F00008F101001FFA80F882480088404500DC8B
:10380000CFE706E00AF1010000F0FF0ABAF1080F65
:10381000CCDB00BF681CC5B200988542A5DB00BFA9
:10382000BFE710B50246012000E050430B1EA1F196
:103830000104E1B2F9D110BD2DE9FF4F81B0074677
:1038400091461E460E9D4FF0000A002439E0301BC1
:10385000401EC1B20A20FFF7E4FFB9FBF0F00A21D5
:10386000B0FBF1F201FB1208BAF1000F16D1701E85
:10387000A04213DDB8F1000F0ED10020AB4605EBDE
:10388000DB71491001FB0471009088B22B462022A5
:103890000299FFF737FF12E04FF0010A0020AB4614
:1038A00005EBDB71491001FB0471009088B208F14F
:1038B0003001CAB22B460299FFF724FF00BF601CFB
:1038C000C4B2B442C3DB05B0BDE8F08F2DE9FF4FB1
:1038D00082B0064692461F46DDE90F48002001905F
:1038E00000254DE0781B401EC1B20A20FFF799FF6A
:1038F000BAFBF0F00A21B0FBF1F201FB12090198CA
:1039000050BB781EA84227DDB9F1000F22D108F084
:10391000800078B108F00100A34604EBDB71491088
:1039200001FB0561009088B2234630220399FFF71E
:10393000E9FE0EE008F00100A34604EBDB7149103C
:1039400001FB0561009088B2234620220399FFF70E
:10395000D9FE13E00120019008F00100A34604EB1A
:10396000DB71491001FB0561009088B209F130015B
:10397000CAB223460399FFF7C5FE00BF681CC5B253
:10398000BD42AFDB06B0BDE8F08F2DE9F847044635
:103990000D4690469946DDE9096704F0FF0A08EBF9
:1039A00004001FFA80F809EB05001FFA80F916E001
:1039B000444502DB5446A81985B24D4500DB14E0AE
:1039C000002000903A78334629462046FFF79AFEB9
:1039D000304606EBD07104EB61018CB27F1C387865
:1039E0007E2802DC38782028E2DA00BFBDE8F887BC
:1039F00084540008F8580008E85E0008140000200D
:103A0000160000203800002010B56FF0040000F010
:103A100074F92E4800682E49B0FBF1F02D4908706A
:103A20000846007800EB4001C1EBC0104FF6FF7173
:103A300001EAC0002849088010BD0146254A1278D5
:103A40004A434FF0E0235A6100229A611A461269F4
:103A500042F001021A6100BF4FF0E022106900F04D
:103A600001021AB100F48032002AF5D04FF0E022B2
:103A7000126922F001024FF0E0231A6100229A61DC
:103A800070470146144A12884A434FF0E0235A61B6
:103A900000229A611A46126942F001021A6100BFBF
:103AA0004FF0E022106900F001021AB100F48032F8
:103AB000002AF5D04FF0E022126922F001024FF007
:103AC000E0231A6100229A61704700000000002084
:103AD00000127A00180000201A00002000BF704772
:103AE00000BF4A4A128802F04002002AF9D0C2B24E
:103AF000464B1B1D1A80704710B586B00446012145
:103B000044F2040000F03AFF4FF40070ADF81400E6
:103B100003208DF8160018208DF8170005A93C48E1
:103B200000F070FC4FF48060ADF8140004208DF8B4
:103B3000170005A9364800F065FC25208DF8000027
:103B400003208DF801008DF8020001208DF803009C
:103B5000684600F088F801940020ADF80800ADF840
:103B60000A00ADF80C00ADF810000C20ADF80E0006
:103B700001A9264800F0A9FF012240F2255123485F
:103B800001F03BF80121214801F02BF806B010BDEF
:103B900010B540F225511D4801F014F910B31B482F
:103BA00001F090F8C4B21B48008800F40040C8B986
:103BB0001848008800F4804060B10A2C03D000202F
:103BC0001449088020E01348008840F4004011495F
:103BD000088019E00D2C06D10E48008840F4804082
:103BE0000C49088010E00B480088C0F30D000A491A
:103BF0000C5408480088401C064908800846008884
:103C0000C72801DD0020088010BD000000380140F9
:103C1000000801402000002046000020094880479D
:103C200009480047FEE7FEE7FEE7FEE7FEE7FEE79E
:103C3000FEE7FEE7FEE7FEE704480549054A064BB6
:103C40007047000073040008310100087001002073
:103C500070070020700300207003002031490143E9
:103C6000314A1160704770B5002100230F22C478DB
:103C700004B32D4C246804F4E064C4F5E064210A24
:103C8000C1F10403CA40447804FA03F18478144073
:103C900021430901254C0678A155047804F01F053D
:103CA0000124AC4005786D11AD0005F1E025C5F8A3
:103CB000004109E0047804F01F050124AC401C4DCC
:103CC0000678761145F8264070BD1A4A0A4002432C
:103CD000154B1B1F1A60704739B1134A121D126829
:103CE0000243114B1B1D1A6006E00F4A121D126899
:103CF00082430D4B1B1D1A607047042808D14FF0FA
:103D0000E021096941F004014FF0E022116107E070
:103D10004FF0E021096921F004014FF0E022116128
:103D2000704700000000FA050CED00E000E400E040
:103D300080E100E080FFFF1F30B943F2DB02810029
:103D4000A1F1C0410A6005E043F2D2028100A1F175
:103D5000C0410A606FF07042411C8900A1F1C0416E
:103D60000A608100A1F1C041C1F804217047102808
:103D70000AD118214FF020421166402151664FF0C0
:103D8000FC319166D16610E01821F74A116040219C
:103D90004FF02042C2F884104FF0FC31F24A083252
:103DA00011604FF02042C2F88C1070471820EE4985
:103DB0002031086000200906C1F8A4004FF0FC3053
:103DC000E94928310860091D0860091D086070472D
:103DD000D0E901121143C2681143026911434269DB
:103DE000114382691143C2691143026A1143426A55
:103DF0001143826A1143C26A1143026B1143026884
:103E00009200A2F1C0421160816808290BD10168BB
:103E10008900A1F1C041096841F0400201688900B0
:103E2000A1F1C0410A60416B0968426B526841EAE6
:103E30000211426B926841EA0221426B928941EA87
:103E40000241426B128A41EA0251426B127D41EA01
:103E50000261426B926911430268521C9200A2F106
:103E6000C0421160C16AB1F5804F1BD1816B0968F6
:103E7000826B526841EA0211826B926841EA022128
:103E8000826B128A41EA0251826B127D41EA026121
:103E9000826B9269114302689200A2F1C042C2F89B
:103EA000041107E06FF0704201688900A1F1C04180
:103EB000C1F80421704730B5002100220023446876
:103EC00044F0080485682C43C5682C4305692C43DD
:103ED000456944EA4524856944EA4531C469246852
:103EE000C5696D6844EA0524C5692D8944EA05441D
:103EF000C5692D7B44EA0562046A2468056A6D6819
:103F000044EA0524056A2D8944EA0544056A2D7BA7
:103F100044EA05630468102C05D14FF02044216663
:103F2000A266E36608E0904C21604FF02044C4F89C
:103F300088208D4C0C34236030BD016841F01001A5
:103F4000426841EA4221826841EA4231864A20328F
:103F50001160C1680968C268526841EA0221C268FA
:103F6000128941EA0241C268127B41EA02617E4A3B
:103F700028321160016909680269526841EA022128
:103F80000269128941EA02410269127B41EA026137
:103F9000754A2C321160416909684269526841EAE8
:103FA00002214269128941EA02414269127B41EAD7
:103FB00002614FF02042C2F8B0107047002101604A
:103FC0000221416000218160C16001614161816124
:103FD000C16101624FF48051416249008162002158
:103FE000C16201630F21426B1160426B5160FF217E
:103FF000426B91600F21426BD160426B1161426B49
:1040000051610021426B91610F21826B1160826BC3
:104010005160FF21826B91600F21826BD160826BB6
:104020001161826B51610021826B91617047102197
:104030000160002141608160C16001614161816175
:10404000FC21C2691160C2695160C2699160C26994
:10405000D160026A1160026A5160026A9160026A6C
:10406000D16070470021016041608160FC21C2681D
:104070001160C2685160C2689160C268D160026913
:10408000116002695160026991600269D160426900
:10409000116042695160426991604269D160704724
:1040A00051B18200A2F1C042126842F001038200C5
:1040B000A2F1C042136009E08200A2F1C04212687E
:1040C0002A4B1A408300A3F1C0431A60704799B18C
:1040D000102808D14FF02042126E42F004024FF037
:1040E00020431A661DE0204A126842F004024FF095
:1040F0002043C3F8802014E0102809D14FF020425B
:10410000126E1A4BDB1E1A404FF020431A6608E06D
:10411000154A1268154BDB1E1A404FF02043C3F8B6
:104120008020704748B110492031096841F00401EE
:104130004FF02042C2F8A01009E00B492031096875
:104140000A4AD21E11404FF02042C2F8A010704718
:10415000B9B110280CD14FF02042126E42F040024B
:104160004FF020431A661FE0800000A0FEFF0F0002
:10417000724A126842F040024FF02043C3F8802098
:1041800012E0102808D14FF02042126E6C4B1A40FA
:104190004FF020431A6607E0684A1268684B1A40DD
:1041A0004FF02043C3F880207047014600201029BB
:1041B00003D14FF02042506F02E0604A1432106881
:1041C000704710B5F2B1102807D14FF020435B6E55
:1041D0000B434FF02044636632E0B0F5807F08D196
:1041E000564B1B1D1B680B434FF02044C4F8843012
:1041F00026E0524B24331B680B434FF02044C4F895
:10420000A4301DE0102807D14FF020435B6E8B4394
:104210004FF02044636613E0B0F5807F08D1474B30
:104220001B1D1B688B434FF02044C4F8843007E00B
:10423000424B24331B688B434FF02044C4F8A43016
:1042400010BD10B5024600200023102A03D14FF004
:104250002044636E09E0B2F5807F03D1374C241D02
:10426000236802E0354C2434236803EA01040CB1CE
:10427000012000E0002010BD102807D14FF020429F
:10428000526E8A434FF020435A6613E0B0F5807FA8
:1042900008D12A4A121D12688A434FF02043C3F8FE
:1042A000842007E0254A243212688A434FF02043D5
:1042B000C3F8A420704770B50246002000230024F4
:1042C0000025102A03D14FF02046736E09E0B2F5A5
:1042D000807F03D1194E361D336802E0174E243615
:1042E000336803EA010403EAD10514B10DB10120DA
:1042F00000E0002070BD102808D14FF02042526E1F
:1043000022EAD1024FF020435A6615E0B0F5807FD3
:1043100009D10A4A121D126822EAD1024FF0204345
:10432000C3F8842008E0054A2432126822EAD10248
:104330004FF02043C3F8A42070470000800000A085
:10434000BFFF0F0010B50446CC48844208D10121BC
:10435000042000F02DFB0021042000F029FB46E0A2
:10436000C748844208D10121082000F021FB002128
:10437000082000F01DFB3AE0C248844208D1012128
:10438000102000F015FB0021102000F011FB2EE0A2
:10439000BD48844208D10121202000F009FB002102
:1043A000202000F005FB22E0B848844208D101211A
:1043B000402000F0FDFA0021402000F0F9FA16E05C
:1043C000B348844208D10121802000F0F1FA002195
:1043D000802000F0EDFA0AE0AE48844207D10121C6
:1043E000801500F0E5FA0021A01500F0E1FA10BDFB
:1043F00010B50121084600F0DBFA0021012000F091
:10440000D7FA10BD2DE9F041024600250026002014
:1044100000230024002791F803C00CF00F0591F849
:1044200003C00CF0100CBCF1000F03D091F802C0D7
:104430004CEA050591F800C0BCF1000F31D01468BA
:1044400000202BE04FF0010C0CFA00F3B1F800C093
:104450000CEA03069E4220D183004FF00F0C0CFAA9
:1044600003F7BC4305FA03FC4CEA040491F803C0CB
:10447000BCF1280F06D14FF0010C0CFA00FCC2F879
:1044800014C00AE091F803C0BCF1480F05D14FF009
:10449000010C0CFA00FCC2F810C0401C0828D1D353
:1044A0001460B1F800C0BCF1FF0F34DD5468002087
:1044B0002EE000F1080C4FF0010808FA0CF3B1F8F7
:1044C00000C00CEA03069E4221D183004FF00F0C7E
:1044D0000CFA03F7BC4305FA03FC4CEA040491F818
:1044E00003C0BCF1280F05D100F1080C08FA0CF844
:1044F000C2F8148091F803C0BCF1480F07D100F155
:10450000080C4FF0010808FA0CF8C2F81080401CA3
:104510000828CED35460BDE8F0814FF6FF710180CA
:10452000022181700421C170704702460020936807
:104530000B400BB1012000E0002070470146886865
:1045400080B2704702460020D3680B400BB10120B7
:1045500000E0002070470146C86880B270470161E2
:104560007047416170470AB1016100E041617047E5
:10457000C16070474FF480320A4382618161826179
:1045800082698269704702460020434B18684FF6E3
:104590008073184040EA021008433F4B1860704790
:1045A0003E49C8617047F0B50A4600230024002147
:1045B000002500F00046B6F1004F02D1364EF169F9
:1045C00001E0354E7168C0F3034583B200F4401634
:1045D000B6F5401F08D121F070612F4E766826F0A5
:1045E00070662D4F7E6012E000F48016B6F5801FD5
:1045F00006D1032606FA05F4A14341F0706106E0F6
:10460000460D360103FA06F6B14341F0706122B15E
:10461000460D360103FA06F6314300F00046B6F1C6
:10462000004F02D11C4EF16101E01B4E7160F0BDE4
:1046300030B500228B071C0F0F2303FA04F2164B30
:1046400008338C1053F824309343134C08348D10E6
:1046500044F8253023468C1053F824308C07240F5F
:1046600000FA04F423430C4C08348D1044F8253030
:1046700030BD0A49DC310860704700000008014085
:10468000000C0140001001400014014000180140DE
:10469000001C0140002001400000014000002042B9
:1046A000DF48006840F00100DD49086008464068C6
:1046B000DC490840DA49486008460068DA490840A1
:1046C000D74908600846006820F480200860084642
:1046D000406820F4FE0048604FF41F008860704777
:1046E000CF49096821F48031CD4A1160114609682B
:1046F00021F480211160B0F5803F03D0B0F5802F08
:104700000ED106E0C649096841F48031C44A1160FF
:1047100007E0C349096841F4A021C14A116000E0E3
:1047200000BF00BF704710B50146002200230020E3
:104730004A11012A02D1BA4C236806E0022A02D1AA
:10474000B74C236A01E0B64C636A01F01F020124F2
:1047500094401C400CB1012000E0002010BD38B591
:10476000002000900024002500BF3120FFF7DBFF70
:1047700005460098401C00900098B0F5A06F01D04D
:10478000002DF2D03120FFF7CEFF08B1012400E068
:104790000024204638BD01460020A14A106820F0C0
:1047A000F80040EAC10010607047A04908607047F7
:1047B000024600209A4B586820F47C1042EA01031C
:1047C0001843974B586070479849086670470146F0
:1047D0000020934A506820F003000843506070475F
:1047E0008F48406800F00C007047014600208C4A5A
:1047F000506820F0F00008435060704701460020E8
:10480000874A506820F4E0600843506070470146D2
:104810000020834A506820F4605040EAC100506094
:10482000704729B17E4A527A02437D4B5A7204E0A6
:104830007B4A527A82437A4B5A7270477B49D8310D
:104840000860704701460020754A506820F44040D7
:104850000843506070470021714A20321170704A3D
:1048600082F82010012802D004280AD104E0012196
:104870006B4A2032117005E00521694A203211701F
:1048800000E000BF00BF7047694908607047644995
:10489000096A0143624A11627047654944390860F8
:1048A000704730B500210022002400235C4D6D6864
:1048B00005F00C0121B1042905D0082923D105E018
:1048C0005C4D056022E05B4D05601FE0544D6D6856
:1048D00005F47012524D6D6805F48034022505EB25
:1048E00092421CB9544D554305600BE04C4D6D6828
:1048F00005F400351DB1504D5543056002E04D4DA6
:104900005543056002E04B4D056000BF00BF444DBC
:104910006D6805F0F0010909484D6B5C0568DD40E4
:1049200045603F4D6D6805F4E061090A434D6B5CDD
:104930004568DD4085603A4D6D6805F46051C90AEF
:104940003E4D6B5C4568DD40C560354D6D6805F4D6
:104950004041890B3A4D6B5CC568B5FBF3F50561C9
:1049600030BD29B12E4A526902432D4B5A6104E0F1
:104970002B4A526982432A4B5A61704729B1284A0F
:1049800092690243264B9A6104E0254A9269824368
:10499000234B9A61704729B1214AD2690243204BC7
:1049A000DA6104E01E4AD26982431D4BDA61704726
:1049B00029B11B4AD2680243194BDA6004E0184A55
:1049C000D2688243164BDA60704729B1144A1269E3
:1049D0000243134B1A6104E0114A12698243104BDF
:1049E0001A61704712494039086070470F49C8641E
:1049F00070470B49C87170470948406A40F08070A1
:104A000007494862704701460020054A92680A40FB
:104A10000AB1012000E00020704701498872704708
:104A2000001002400000FFF8FFFFF6FE00004242C7
:104A30008004424200127A0000093D00220000205A
:104A40003200002010B50446FB48844209D1012100
:104A50008803FFF7ADFF00214FF48040FFF7A8FF68
:104A600032E0F648844209D101214804FFF7ADFF46
:104A700000214FF40030FFF7A8FF25E0F048844202
:104A800009D101218804FFF7A0FF00214FF4802005
:104A9000FFF79BFF18E0EB48844209D10121C804CD
:104AA000FFF793FF00214FF40020FFF78EFF0BE08C
:104AB000E548844208D101210805FFF786FF00215F
:104AC0004FF48010FFF781FF10BD2DE9F04786B04D
:104AD00005460E460024A24600BFA1460027B08925
:104AE00000B100BF2F462C8A4CF6FF700440F088BE
:104AF00004432C82AC894EF6F3100440B08831890F
:104B00000843718908430443AC81AC8A4FF6FF40E7
:104B10000440B0890443AC8201A8FFF7C2FEC64836
:104B2000874202D1DDF810A001E0DDF80CA0A889D1
:104B300000F4004040B10AEBCA0000EB0A103168F3
:104B40004900B0FBF1F807E00AEBCA0000EB0A10DD
:104B500031688900B0FBF1F86420B8FBF0F0040183
:104B60002009642101FB1089A88900F4004040B1AC
:104B7000322000EBC900B0FBF1F000F00700044365
:104B800008E0322000EB09106421B0FBF1F000F0E6
:104B90000F0004432C8106B0BDE8F0874FF4165196
:104BA000016000218180C18001810C2141810021AF
:104BB0008181704710B502460020108A4FF2FF0332
:104BC00018400B884C8823438C882343CC8823438C
:104BD0001843108210BD0021018041808180C18076
:104BE000704721B1828942F40052828104E08289B7
:104BF0004DF6FF731A4082817047F0B503460024DA
:104C000000260025002040F66A17B94200D100BFF7
:104C10001846C1F3421401F01F06012707FA06F5F2
:104C2000012C01D10C3004E0022C01D1103000E045
:104C300014301AB107682F43076002E00768AF43DA
:104C40000760F0BD1AB1838A0B43838202E0838A36
:104C50008B4383827047028A4FF6F0731A400282B8
:104C6000028A0A430282704782894FF2FF731A4018
:104C7000828182890A438281704721B1828942F010
:104C80000202828104E082894FF6FD731A4082811C
:104C90007047028A4FF6DF731A400282028A0A4383
:104CA0000282704721B1028A42F48042028204E00B
:104CB000028A4BF6FF731A4002827047C1F3080262
:104CC0008280704701468888C0F308007047818958
:104CD00041F0010181817047028BD2B20283028BC5
:104CE00042EA012202837047028B02F47F42028370
:104CF000028B0A430283704721B1828A42F020026C
:104D0000828204E0828A4FF6DF731A408282704703
:104D100021B1828A42F01002828204E0828A4FF638
:104D2000EF731A408282704721B1828A42F00802F2
:104D3000828204E0828A4FF6F7731A4082827047BB
:104D400021B1828942F40042828103E08289C2F368
:104D50000E028281704721B1828A42F4006282820F
:104D600004E0828A4FF2FF731A4082827047828A7F
:104D70004FF6FB731A408282828A0A43828270470E
:104D800021B1828A42F00202828204E0828A4FF6D6
:104D9000FD731A408282704702460020B1F5007F01
:104DA00000D100BF13880B400BB1012000E00020B0
:104DB000704701F40072B2F5007F00D100BFCA4312
:104DC0000280704770B502460024002300250020B1
:104DD00040F66A16B14200D100BFC1F3421501F09E
:104DE0001F03012606FA03F3012D02D196893340F1
:104DF00006E0022D02D1168A334001E0968A334044
:104E00000C12012606FA04F41688344013B10CB1D2
:104E1000012000E0002070BD10B50022002340F604
:104E20006A14A14200D100BF0A1201249440A3B227
:104E3000DC43048010BD0000003801400044004005
:104E400000480040004C0040005000407047000007
:104E50000FB4044910B503AA029800F085F910BCFC
:104E60005DF814FB1C0000200FB41CB5074B06AA0C
:104E70007B4469460090059800F05DF90020694682
:104E800000F06CF91CBC5DF814FB0000E9020000A6
:104E900070B5044685690068C10601D5302600E07A
:104EA0002026C00707D070BDD4E9012130469047C5
:104EB000206A401C20626D1EF6D570BD70B5044698
:104EC00085690078C00707D170BDD4E90121202091
:104ED0009047206A401C20626D1EF6D570BD000010
:104EE00070B504460D4621461068AFF30080218856
:104EF000090502D50F4A7A4402E00E4A7A440E327E
:104F0000002104F1240305E000F00F060009965D7E
:104F10005E54491C0028F7D120780023000704D5EF
:104F2000702D02D009B1022311322046BDE8704035
:104F300000F0A2B84A1D00002DE9F05F8946044642
:104F40004FF0000ADFF824B1FB44C0F820A020464F
:104F5000E168884700287DD0252806D0D4E90121C2
:104F60009047206A401C2062F1E700255F462046FA
:104F7000E16888472028064607DB312E05D2B8199C
:104F800010F8200C08B10543F1E7A80701D525F07A
:104F90000405C4F81CA00027C4F818A02A2E09D0C4
:104FA000304600F029F938B304EB8708303EC8F8E2
:104FB000186019E059F8041B204604EB8702916140
:104FC000E1688847012F064618D1E069002820DAF9
:104FD00025F020051DE0D8F8180000EB800006EB56
:104FE00040003038C8F818002046E1688847064677
:104FF00000F002F90028EED1012F0AD02E2E08D1A0
:105000002046E16888477F1C0646022F45F02005B0
:10501000C4DBA069002803DA404245F00105A06125
:10502000E80701D025F01005A6B1A6F14100192826
:1050300002D8203645F400654A46314620462560B0
:105040004D46FBF7AFF860B1012807D0ED1D25F004
:10505000070000E007E000F1080978E705F104091E
:1050600075E730467AE7206ABDE8F09F201D000012
:1050700070477047704770472DE9F0470D469946D5
:105080009246044600F124080168880604D5E069C8
:1050900021F01001216000E00120A84201DD471B42
:1050A00000E00027A1697A1902EB0900081AA06143
:1050B0002078C00602D42046FFF7EAFE002608E06A
:1050C000D4E901211AF806009047206A401C761C9A
:1050D00020624E45F4DB2078C0060AD52046FFF753
:1050E000D7FE06E0D4E9012130209047206A401C19
:1050F0002062381EA7F10107F4DC07E0D4E90121A2
:1051000018F805009047206A401C2062281EA5F16F
:105110000105F3DC2046FFF7D1FE2078000602D51A
:105120000220BDE8F0870120FBE7000001694A1C6E
:1051300002610878704700B58FB0CDE901310021D8
:10514000059105497944CDE9031011466846FFF7FA
:10515000F3FE0FB000BD0000E5FFFFFF0A6802F894
:10516000010B0A6070470000074B70B50D467B4489
:10517000FFF7E1FF0446284600F008F810B14FF0B1
:10518000FF3070BD204670BD6FE9FFFF007B00F06F
:1051900080007047754600F02BF8AE460500694662
:1051A000534620F00700854618B020B5FEF744FDB1
:1051B000BDE820404FF000064FF000074FF0000818
:1051C0004FF0000B21F00701AC46ACE8C009ACE899
:1051D000C009ACE8C009ACE8C0098D46704710B5FD
:1051E0000446AFF300802046BDE81040FAF7ECBF5C
:1051F000004870471001002030380A2801D20120F1
:1052000070470020704700004FEA1153A3F58063F8
:10521000D3F11E03A8BFD3F1200C08DB4FF00042EE
:1052200042EAC12252EA505232FA03F07047094270
:105230000BD4102BC4BF0020704703F5787CBCF161
:10524000FF3F05D04FF0FF3070474FF00000704730
:1052500070B500F0C3F800BF499224800020704769
:10526000F0E7B0FA80F310FA03F10AD0C3F11D039E
:1052700003F580634FEA41504FEA035202EBD1211C
:1052800070474FF000007047DFF848C170B51CEA66
:10529000111E1EBF1CEA13159EEA0C0F95EA0C0F97
:1052A00000F06F8081EA030423EA4C134EEAD47EB7
:1052B00021EA4C1141F4801143F48013AE44A1FB68
:1052C000024CA0FB0365AEF17F7E361955EB0C0551
:1052D000A1FB034C4CF10003A0FB021C16EB0C06D7
:1052E000654153F10003094218BF46F0010613F46B
:1052F000007F0BD14FEA03314FEA0530340341EA16
:10530000155140EA16506FF003020AE04FEAC3213C
:105310004FEAC520F40241EA555140EA56506FF079
:10532000020202EB2E4201EB025585EACE710AD051
:105330005FEA440C18BF24F0004450F1000041F132
:10534000000120EAD47040F2FE7C624500D270BDBC
:10535000A84214BF4FF080444FF04044002E08BFD5
:105360000024BEF1806FA8BFA1F1C041BDE870402C
:1053700080F282804FF0000001F1C04101F0004155
:1053800070479EEA0C0F0CEA131518BF95EA0C0F34
:1053900006D04FF0000081EA030E0EF0004170BD10
:1053A00000F01CF88900013E00F007B800F009B8D1
:1053B0004FEA430C5FEA5C5C08D081EA030100F02D
:1053C0005BB84FEA410C5FEA5C5CF6D14FF000003D
:1053D000014970470000FF070000F87F0EF1020E40
:1053E0002EF0030E5EF8046B364205D4012A43EB1F
:1053F000030515F5001F12D8012841EB010C1CF51F
:10540000001F0CD80ED14FEAD17C15F5001F0CEB14
:105410004C0C0CF1020C08BF4CEBD37C04E04FF0B9
:10542000080C01E04FEAD37C0CEB4C0526FA05F69C
:1054300006F00706B6F1040C06D20EEB860CBDE8AA
:1054400070404CF0010C6047DFE80CF0090B0202E1
:105450004FF000414FF00000A1F5002170BD19464A
:105460001046012851EB010418BFD4F5001484BF85
:10547000002001F0004170BD0808A0F500114FEABE
:105480003101704700000000000000000000000033
:10549000000000003F40000000000000000030005D
:1054A000400030004000000009000BC03D000BC070
:1054B0003D00090018C024407FE0224031800000F8
:1054C000180024C01B000D803240018003801C4066
:1054D00027401C80074000401000600000000000D2
:1054E000000000000000000000001F80204040205D
:1054F0000000402020401F8000000000090006003E
:105500001F80060009000000040004003F80040022
:105510000400000000100060000000000000000017
:105520000400040004000400040000000000004027
:105530000000000000000000002001C0060038004C
:10554000400000001F802040204020401F800000BD
:10555000000010403FC000400000000018C0214083
:105560002240244018400000108020402440244065
:105570001B80000002000D0011003FC00140000030
:105580003C80244024402440238000001F8024408D
:1055900024403440038000003000200027C0380041
:1055A000200000001B802440244024401B80000079
:1055B0001C0022C0224022401F800000000000008A
:1055C000084000000000000000000000046000002F
:1055D00000000000000004000A001100208040408C
:1055E000090009000900090009000000000040400E
:1055F000208011000A00040018002000234024002D
:10560000180000001F802040274029401F40000054
:10561000004007C039000F0001C0004020403FC0DB
:10562000244024401B8000001F8020402040204058
:105630003080000020403FC0204020401F800000FC
:1056400020403FC024402E4030C0000020403FC0DA
:1056500024402E00300000000F0010802040224027
:105660003380020020403FC0040004003FC02040BF
:10567000204020403FC0204020400000006020200B
:1056800020203FC02000200020403FC024400B00CD
:1056900030C0204020403FC020400040004000C0BB
:1056A0003FC03C0003C03C003FC0000020403FC062
:1056B0000C4023003FC020001F802040204020409D
:1056C0001F80000020403FC024402400180000003C
:1056D0001F802140214020E01FA0000020403FC04B
:1056E0002440260019C0004018C024402440224015
:1056F00031800000300020403FC0204030000000DA
:1057000020003F80004000403F80200020003E00FD
:1057100001C0070038002000380007C03C0007C067
:1057200038000000204039C0060039C02040000089
:105730002000384007C0384020000000304021C021
:105740002640384020C00000000000007FE04020DC
:1057500040200000000070000C00038000400000AA
:105760000000402040207FE00000000000002000FA
:105770004000200000000000001000100010001089
:1057800000100010000000004000000000000000B9
:10579000000002800540054003C0004020003FC0DB
:1057A00004400440038000000000038004400440E3
:1057B0000640000000000380044024403FC0004039
:1057C0000000038005400540034000000000044045
:1057D0001FC0244024402000000002E00550055076
:1057E0000650042020403FC00440040003C0004095
:1057F0000000044027C0004000000000001000101E
:10580000041027E00000000020403FC001400700D6
:1058100004C00440204020403FC000400040000041
:1058200007C0040007C0040003C00000044007C014
:105830000440040003C00040000003800440044012
:1058400003800000041007F00450044003800000AF
:10585000000003800440045007F00010044007C01B
:10586000024004000400000000000640054005401E
:1058700004C00000000004001F800440004000003D
:10588000040007800040044007C0004004000700F7
:1058900004C0018006000400060001C0070001C02A
:1058A00006000000044006C0010006C004400000DD
:1058B0000410071004E0018006000400000004400A
:1058C00005C00640044000000000000004007BE02A
:1058D00040200000000000000000FFF00000000079
:1058E000000040207BE00400000000004000800039
:1058F00040002000200040000000000000000000E8
:1059000000000000000000000000000000001FCCAC
:10591000000C0000000000000000080030006000E3
:105920000800300060000000022003FC1E2002205E
:1059300003FC1E200220000000000E1811043FFF8F
:1059400010840C78000000000F0010840F3800C095
:10595000077818840078000000780F8410C41124A0
:105960000E9800E400840008080068007000000041
:10597000000000000000000000000000000007E040
:1059800018182004400200000000400220041818EB
:1059900007E00000000000000240024001800FF01C
:1059A00001800240024000000080008000800FF86B
:1059B00000800080008000000001000D000E00004B
:1059C0000000000000000000000000800080008057
:1059D00000800080008000800000000C000C0000AF
:1059E0000000000000000000000000060018006039
:1059F0000180060018002000000007F008081004CD
:105A00001004080807F000000000080408041FFC48
:105A1000000400040000000000000E0C101410240C
:105A2000104411840E0C000000000C181004110426
:105A3000110412880C700000000000E00320042410
:105A400008241FFC0024000000001F98108411048B
:105A50001104108810700000000007F0088811047D
:105A6000110418880070000000001C00100010FCD9
:105A700013001C001000000000000E3811441084B8
:105A8000108411440E38000000000700088C1044F8
:105A90001044088807F00000000000000000030C1C
:105AA000030C0000000000000000000000010106DF
:105AB0000000000000000000000000800140022003
:105AC0000410080810040000022002200220022016
:105AD0000220022002200000000010040808041028
