:020000040800F2
:10000000080900202D02000833430008570C00089F
:100010002F430008790900085B4A0008000000002F
:10002000000000000000000000000000F144000893
:100030007D09000800000000B943000805460008DB
:10004000470200084702000847020008470200086C
:10005000470200084702000847020008470200085C
:10006000470200084702000847020008470200084C
:10007000470200084702000847020008470200083C
:10008000470200084702000847020008470200082C
:10009000470200084702000847020008470200081C
:1000A000470200084702000847020008470200080C
:1000B0004702000847020008694600084702000896
:1000C00047020008470200084702000847020008EC
:1000D00047020008194800084702000847020008C4
:1000E00047020008470200084702000847020008CC
:1000F00047020008470200084702000847020008BC
:1001000047020008470200084702000847020008AB
:10011000470200084702000847020008470200089B
:10012000470200084702000847020008470200088B
:1001300000F002F800F06BF80AA090E8000C82448E
:100140008344AAF10107DA4501D100F060F8AFF26B
:10015000090EBAE80F0013F0010F18BFFB1A43F0A5
:1001600001031847C0CA0000E0CA00000A444FF06B
:10017000000C10F8013B13F0070408BF10F8014B06
:100180001D1108BF10F8015B641E05D010F8016B4B
:10019000641E01F8016BF9D113F0080F1EBF10F8AF
:1001A000014BAD1C0C1B09D16D1E58BF01F801CBD2
:1001B000FAD505E014F8016B01F8016B6D1EF9D555
:1001C0009142D6D37047000000230024002500266A
:1001D000103A28BF78C1FBD8520728BF30C148BFAA
:1001E0000B607047642900F0C380752900F0C0805F
:1001F000782900F0F980632900F00383732900F067
:100200000883002070471FB51FBD10B510BD00F05A
:1002100085FB1146FFF7F7FF06F0EEF900F0A3FBB0
:1002200003B4FFF7F2FF03BC04F09DFC09488047CC
:1002300009480047FEE7FEE7FEE7FEE7FEE7FEE7C8
:10024000FEE7FEE7FEE7FEE704480549054A064BE0
:10025000704700000946000831010008080300202B
:10026000080900200805002008050020704710B587
:100270004C1084EA530404D54042C1F1000138BF58
:10028000491E1B4204D55242C3F1000338BF5B1E16
:1002900000F0D2F914F0804F04D04042C1F10001C7
:1002A00038BF491E14F0004F04D05242C3F100037E
:1002B00038BF5B1E10BD00000FB4044910B503AA7F
:1002C000029800F0ABFA10BC5DF814FB5800002057
:1002D00070B5044685690068C10601D5302600E086
:1002E0002026C00707D070BDD4E9012130469047D1
:1002F000206A401C20626D1EF6D570BD70B50446A4
:1003000085690078C00707D170BDD4E9012120209C
:100310009047206A401C20626D1EF6D570BD70B5F6
:100320000C460546012A05D02878800600D5EA69E2
:10033000002302E0012305E05B1C934202D2E05C53
:100340000028F9D1A869E618C01AA861286A1844DB
:1003500028622846FFF7BCFF04E0D5E9012114F824
:10036000010B9047B442F8D32846FFF7C7FF70BD92
:100370002DE9F0410646002410687529314616A57E
:1003800010D0AFF30080002802DA404213A507E046
:1003900031688A0701D512A502E0490704D511A5E5
:1003A000012401E0AFF3008000210A2206F12407B6
:1003B00009E0B0FBF2FCB0FBF2F302FB1C003030B2
:1003C00078541846491C0028F3D123462A46304663
:1003D000BDE8F04100F0B2B9000000002D000000BF
:1003E0002B0000002000000070B504460D46214699
:1003F0001068AFF300802188090502D50F4A7A44BE
:1004000002E00E4A7A440E32002104F1240305E092
:1004100000F00F060009965D5E54491C0028F7D1D4
:1004200020780023000704D5702D02D009B10223E3
:1004300011322046BDE8704000F080B9B0C5000020
:100440002DE9F05F894604464FF0000ADFF874B1E9
:10045000FB44C0F820A02046E1688847002874D0FB
:10046000252806D0D4E901219047206A401C20624B
:10047000F1E700265F462046E168884720280546C8
:1004800007DB312D05D2781910F8200C08B106438E
:10049000F1E7B00701D526F00406C4F81CA0002738
:1004A000C4F818A02A2D09D0284604F055FB38B30B
:1004B00004EB8708303DC8F8185019E059F8041BC0
:1004C000204604EB87029161E1688847012F0546C9
:1004D00018D1E069002820DA26F020061DE0D8F8BF
:1004E000180000EB800005EB40003038C8F8180019
:1004F0002046E1688847054604F02EFB0028EED12F
:10050000012F0AD02E2D08D12046E16888477F1C94
:100510000546022F46F02006C4DBA069002803DA56
:10052000404246F00106A061F00701D026F0100617
:100530006C2D0BD0682D09D04C2D39D06A2D35D0BB
:10054000742D35D07A2D33D016E038E0E1682F468F
:1005500020468847B842054609D16C2F26D04FF473
:100560008060E168064320468847054604E06C2F1A
:100570001AD04FF4807006430DB3A5F1410019283D
:1005800002D8203546F400664A46294620462660B1
:100590004E46FFF727FE80B101280BD0F61D26F04E
:1005A000070000F1080956E74020E4E78020D8E77B
:1005B0000020D6E706F104094DE7284652E7206AF5
:1005C000BDE8F09F86C5000040EA010310B59B0717
:1005D0000FD1042A0DD310C808C9121F9C42F8D0AD
:1005E00020BA19BA884201D9012010BD4FF0FF305E
:1005F00010BD1AB1D30703D0521C07E0002010BD74
:1006000010F8013B11F8014B1B1B07D110F8013BFF
:1006100011F8014B1B1B01D1921EF1D1184610BDE0
:1006200002F0FF0343EA032242EA024200F00AB961
:10063000704770477047704753EA020C00F06980BA
:100640002DE9F04B4FF00006002B1FBFB3FA83F5E6
:1006500003FA05F424FA05F65E4012BF1643B2FA17
:1006600082F502FA05F4C5F120051EBF22FA05FC49
:1006700044EA0C04203556EA044C4FEA144418BFEF
:10068000641C4FF000084FF00009904271EB030C1E
:1006900039D3002919BFB1FA81F701FA07F6B0FA88
:1006A00080F700FA07F6C7F120071EBF20FA07FC03
:1006B00046EA0C062037B6FBF4FCA7EB0507103F13
:1006C00007F01F0BCBF120060CFA0BFB2CFA06F6F9
:1006D00044BFB3460026202FA4BF5E464FF0000B58
:1006E0005BEA060C08BF4FF0010B19EB0B09ABFBE3
:1006F000027C48EB0608C01B06FB02CC0BFB03CCBC
:1007000071EB0C01C1E70B46024641464846BDE885
:10071000F08B13B54FF000004FF00001AFF30080F5
:10072000BDE81C40704710B500F0ACF8006810BD83
:1007300010B5044600F0A6F8046010BD2DE9F0479E
:100740000D4699469246044600F124080168880641
:1007500004D5E06921F01001216000E00120A842E9
:1007600001DD471B00E00027A1697A1902EB0900AF
:10077000081AA0612078C00602D42046FFF7A8FD21
:10078000002608E0D4E901211AF806009047206A03
:10079000401C761C20624E45F4DB2078C0060AD54A
:1007A0002046FFF795FD06E0D4E90121302090476F
:1007B000206A401C2062381EA7F10107F4DC07E024
:1007C000D4E9012118F805009047206A401C2062F6
:1007D000281EA5F10105F3DC2046FFF78FFD2078E8
:1007E000000602D50220BDE8F0870120FBE710B526
:1007F000436913B1AFF3008001E0FFF790FD0120E2
:1008000010BD127800F124010A7000224A70012202
:10081000EDE711684FF0FF32E9E70000074B70B5D4
:100820000D467B4400F037F80446284600F046F8B1
:1008300010B14FF0FF3070BD204670BD0F57000063
:100840004FF000020429C0F0128010F0030C00F0F9
:100850003B80CCF1040CBCF1020F18BF00F8012B57
:10086000A8BF20F8022BA1EB0C0100F02DB85FEA25
:10087000C17C24BF00F8012B00F8012B48BF00F811
:10088000012B704700487047A402002001694A1CF0
:1008900002610878704700B58FB0CDE901310021C1
:1008A000059105497944CDE9031011466846FFF7E3
:1008B000C7FD0FB000BD0000E5FFFFFF007B00F0AB
:1008C000800070474FF0000200B5134694469646EC
:1008D000203922BFA0E80C50A0E80C50B1F1200153
:1008E000BFF4F7AF090728BFA0E80C5048BF0CC001
:1008F0005DF804EB890028BF40F8042B08BF70475F
:1009000048BF20F8022B11F0804F18BF00F8012BD0
:100910007047000000487047A40200207546FFF7AA
:10092000F9FFAE4605006946534620F007008546AC
:1009300018B020B5FFF788FCBDE820404FF0000656
:100940004FF000074FF000084FF0000B21F00701B7
:10095000AC46ACE8C009ACE8C009ACE8C009ACE8FA
:10096000C0098D46704710B50446AFF3008020469D
:10097000BDE81040FFF754BC00BFFEE77047000021
:1009800051B18200A2F1C042126842F0010382001C
:10099000A2F1C042136009E08200A2F1C0421268D5
:1009A000034B1A408300A3F1C0431A607047000054
:1009B000FEFF0F00D0E901121143C2681143026922
:1009C00011434269114382691143C2691143026AAA
:1009D0001143426A1143826A1143C26A1143026B96
:1009E000114302689200A2F1C04211608168082997
:1009F0000BD101688900A1F1C041096841F04002B2
:100A000001688900A1F1C0410A60416B0968426B2D
:100A1000526841EA0211426B926841EA0221426B3C
:100A2000928941EA0241426B128A41EA0251426BC9
:100A3000127D41EA0261426B926911430268521CC5
:100A40009200A2F1C0421160C16AB1F5804F1BD182
:100A5000816B0968826B526841EA0211826B92686D
:100A600041EA0221826B128A41EA0251826B127DB5
:100A700041EA0261826B9269114302689200A2F11D
:100A8000C042C2F8041107E06FF0704201688900AB
:100A9000A1F1C041C1F8042170472DE9F04102469F
:100AA00000250026002000230024002791F803C021
:100AB0000CF00F0591F803C00CF0100CBCF1000F06
:100AC00003D091F802C04CEA050591F800C0BCF1D2
:100AD000000F31D0146800202BE04FF0010C0CFA0D
:100AE00000F3B1F800C00CEA03069E4220D1830057
:100AF0004FF00F0C0CFA03F7BC4305FA03FC4CEA69
:100B0000040491F803C0BCF1280F06D14FF0010C8A
:100B10000CFA00FCC2F814C00AE091F803C0BCF162
:100B2000480F05D14FF0010C0CFA00FCC2F810C0C0
:100B3000401C0828D1D31460B1F800C0BCF1FF0FED
:100B400034DD546800202EE000F1080C4FF001085D
:100B500008FA0CF3B1F800C00CEA03069E4221D15A
:100B600083004FF00F0C0CFA03F7BC4305FA03FCAB
:100B70004CEA040491F803C0BCF1280F05D100F140
:100B8000080C08FA0CF8C2F8148091F803C0BCF104
:100B9000480F07D100F1080C4FF0010808FA0CF8D3
:100BA000C2F81080401C0828CED35460BDE8F08104
:100BB000F0B50A46002300240021002500F000467D
:100BC000B6F1004F02D11D4EF16901E01B4E716874
:100BD000C0F3034583B200F44016B6F5401F08D1B8
:100BE00021F07061154E766826F07066134F7E60B6
:100BF00012E000F48016B6F5801F06D1032606FA2F
:100C000005F4A14341F0706106E0460D360103FA98
:100C100006F6B14341F0706122B1460D360103FA88
:100C200006F6314300F00046B6F1004F02D1034E04
:100C3000F16101E0014E7160F0BD00000000014073
:100C40000246002093680B400BB1012000E0002019
:100C500070470161704700BFFEE7000008B5012141
:100C6000442003F0CBFB1820ADF8000048208DF89D
:100C7000030069460648FFF710FF0120ADF80000A9
:100C800028208DF8030069460248FFF706FF08BDDB
:100C9000001801400008014010B5044614B10120BD
:100CA000234908702248007858B310212148FFF7E3
:100CB000C7FF50B108211F48FFF7C2FF28B101212B
:100CC0001D48FFF7BDFF01281BD10A2004F00CFBD3
:100CD00000201749087010211648FFF7B1FF08B926
:100CE000012010BD08211348FFF7AAFF08B9022010
:100CF000F7E701211048FFF7A3FF012815D10320D2
:100D0000EFE710210B48FFF79BFF01280DD10821C9
:100D10000848FFF795FF012807D101210648FFF792
:100D20008FFF10B90120024908700020D9E70000A8
:100D300014000020001801400008014070B504466E
:100D4000002609480588408845430021084602F0EE
:100D5000E5FD02F091FF00BF02E004480480761C2C
:100D6000AE42FAD370BD0000BC0100200008006C48
:100D700010B5044649488471002C45D1F0204749FC
:100D800008804FF4A07048800846808845F21051D2
:100D9000884210D14FF43050404908814FF4285018
:100DA00048814FF42C5088814FF4F07008804FF444
:100DB000487048801AE03948808841F663118842BB
:100DC0000DD12C20354908812B2048812A2088818B
:100DD0004FF4F07008804FF44870488006E02C20F3
:100DE0002E4908812A2048812B2088812B48808821
:100DF00045F2103188424CD14FF4A0702749088049
:100E00004FF4F070488044E04FF4A070234908800C
:100E1000F02048800846808845F21051884210D161
:100E20004FF430501D4908814FF4285048814FF449
:100E30002C5088814FF4487008804FF4F07048803F
:100E40001AE01648808841F6631188420DD12C20A3
:100E5000124908812A2048812B2088814FF448704C
:100E600008804FF4F070488006E02C200B49088180
:100E70002A2048812B2088810848808845F210313B
:100E8000884206D14FF4F070044908804FF4A070F6
:100E90004880002002F028FC10BD0000BC010020AA
:100EA00010B503460C463848808845F210518842F8
:100EB00020D13549488902F0D9FE181202F0D0FE3F
:100EC00031494989491C88B202F0D0FED8B202F0FB
:100ED000C7FE2D49888902F0C9FE201202F0C0FE2B
:100EE00029498989491C88B202F0C0FEE0B202F0AB
:100EF000B7FE42E02448808841F66311884228D139
:100F00002148807920B920480088401EC01A83B249
:100F10001D49488902F0AAFE181202F0A1FED8B2BB
:100F200002F09EFE181202F09BFED8B202F098FE6C
:100F30001549888902F09AFE201202F091FEE0B273
:100F400002F08EFE201202F08BFEE0B202F088FE6C
:100F500013E00D49488902F089FE181202F080FE64
:100F6000D8B202F07DFE0849888902F07FFE201287
:100F700002F076FEE0B202F073FE034800890349F6
:100F80000880881C028010BDBC010020FE07006C98
:100F90002DE9F04F05460E4617469846DDF824A089
:100FA0004FF0000B781B401C1FFA80FB344613E007
:100FB0002146284602F0B2FC02F05EFE4FF0000926
:100FC00006E00748A0F800A009F101001FFA80F927
:100FD000D945F6DB601C84B24445E9DDBDE8F08FFD
:100FE0000008006C00B59FB00121080203F0E6F98B
:100FF00001214FF4B47003F001FA0120ADF878003C
:1010000010208DF87B0003208DF87A001EA9FE4881
:10101000FFF743FD4CF23370ADF8780018208DF8DF
:101020007B0003208DF87A001EA9F848FFF735FDF4
:101030004FF68070ADF8780018208DF87B00032003
:101040008DF87A001EA9F248FFF727FD41F2010052
:10105000ADF8780018208DF87B0003208DF87A0019
:101060001EA9EC48FFF719FD012008900020099007
:101070000F200A9000200B900C900D900E90019084
:1010800002900320039000200490059006900790A2
:1010900006200F9000201090119010201290002038
:1010A000139015901490169017904FF4805018904C
:1010B000002019904FF480401A9000201B9008A83F
:1010C0001C9001A81D900FA8FFF774FC01210620B9
:1010D000FFF756FC322004F007F9D32002F0C6FDDA
:1010E00002F0CEFACC49888002F0CAFACA49888058
:1010F00002F0C6FAC8498880084680884FF6FF711A
:1011000001EA0020C449888002F0BAFAC2498988FD
:101110000843C14988800846808849F241318842A5
:101120007DD0042002F0A2FD02F0AAFABA4988801C
:1011300002F0A6FAB849888002F0A2FAB64988807F
:10114000084680884FF6FF7101EA0020B249888086
:1011500002F096FAB04989880843AF49888008466A
:10116000808848F25251884203D147F28970AA49D7
:101170008880A948808847F289718842D0D0D420DD
:1011800002F074FD02F07CFAA349888002F078FA3C
:10119000A149888002F074FA9F49888008468088B7
:1011A0004FF6FF7101EA00209B49888002F068FA3F
:1011B000994989880843984988800846808845F27B
:1011C0001031884262D055214FF4704002F05EFD2C
:1011D000AA214FF2010002F059FD52214FF2020004
:1011E00002F054FD08214FF2030002F04FFD0121EF
:1011F0004FF2040002F04AFD4FF4454002F036FD84
:1012000002F03EFA84498880084680884FF6FF71D4
:1012100001EA0020804988804CF2015000E035E06E
:1012200002F024FD02F02CFA7B49898808437A49B0
:101230008880052004F058F87748808845F21051DE
:10124000884223D0A12002F011FD02F019FA724960
:10125000888002F015FA70498880084680884FF629
:10126000FF7101EA00206C49888002F009FA6A499E
:1012700089880843684988800846808845F26171FA
:10128000884203D141F663106349888062488188AF
:1012900062A0FFF711F86048808849F24131884226
:1012A0007ED1CF2002F0E2FC002002F0D9FCC12068
:1012B00002F0D6FC302002F0D3FCED2002F0D6FC88
:1012C000642002F0CDFC032002F0CAFC122002F0E0
:1012D000C7FC812002F0C4FCE82002F0C7FC852096
:1012E00002F0BEFC102002F0BBFC7A2002F0B8FC39
:1012F000CB2002F0BBFC392002F0B2FC2C2002F023
:10130000AFFC002002F0ACFC342002F0A9FC02206B
:1013100002F0A6FCF72002F0A9FC202002F0A0FCBD
:10132000EA2002F0A3FC002002F09AFC002002F068
:1013300097FCC02002F09AFC1B2002F091FCC12017
:1013400002F094FC012002F08BFCC52002F08EFC20
:10135000302002F085FC302002F082FCC72002F031
:1013600085FCB72002F07CFC362002F07FFC482090
:1013700002F076FC3A2002F079FC552002F070FC75
:10138000B12002F073FC002002F06AFC1A2002F087
:1013900067FCB62002F06AFC0A2002F061FC00E063
:1013A000ABE0A22002F05CFCF22002F05FFC002027
:1013B00002F056FC262002F059FC012002F050FCFD
:1013C000E02002F053FC0F2002F04AFC2A2002F039
:1013D00047FC282002F044FC082002F041FC0E20CB
:1013E00002F03EFC082002F03BFC542002F038FCE6
:1013F000A92002F035FC432002F032FC0A2002F062
:101400002FFC0F2012E00000000C014000140140EE
:101410000018014000200140BC010020204C434442
:101420002049443A25780D0A0000000002F018FC1B
:10143000002002F015FC002002F012FC002002F057
:101440000FFC002002F00CFCE12002F00FFC002059
:1014500002F006FC152002F003FC172002F000FC4D
:10146000072002F0FDFB112002F0FAFB062002F03B
:10147000F7FB2B2002F0F4FB562002F0F1FB3C209E
:1014800002F0EEFB052002F0EBFB102002F0E8FB7F
:101490000F2002F0E5FB3F2002F0E2FB3F2002F0CC
:1014A000DFFB0F2002F0DCFB2B2002F0DFFB002033
:1014B00002F0D6FB002002F0D3FB012002F0D0FBAB
:1014C0003F2002F0CDFB2A2002F0D0FB002002F0EA
:1014D000C7FB002002F0C4FB002002F0C1FBEF209C
:1014E00002F0BEFB112002F0C1FB782003F0FCFEED
:1014F000292002F0BBFB02F0A6B8FE48808847F224
:10150000897188427ED1112002F0B0FB782003F06F
:10151000EBFE362002F0AAFB002002F0A1FB3A20ED
:1015200002F0A4FB052002F09BFBB22002F09EFB20
:101530000C2002F095FB0C2002F092FB002002F040
:101540008FFB332002F08CFB332002F089FBB720A5
:1015500002F08CFB352002F083FBBB2002F086FBFF
:10156000322002F07DFBC02002F080FB0C2002F054
:1015700077FBC22002F07AFB012002F071FBC3204E
:1015800002F074FB102002F06BFBC42002F06EFB33
:10159000202002F065FBC62002F068FB0F2002F05D
:1015A0005FFBD02002F062FBA42002F059FBA120D7
:1015B00002F056FBE02002F059FBD02002F050FB75
:1015C000002002F04DFB022002F04AFB072002F04F
:1015D00047FB0A2002F044FB282002F041FB3220A6
:1015E00002F03EFB442002F03BFB422002F038FBBD
:1015F000062002F035FB0E2002F032FB122002F032
:101600002FFB00E054E0142002F02AFB172002F028
:1016100027FBE12002F02AFBD02002F021FB002072
:1016200002F01EFB022002F01BFB072002F018FB59
:101630000A2002F015FB282002F012FB312002F0F4
:101640000FFB542002F00CFB472002F009FB0E2098
:1016500002F006FB1C2002F003FB172002F000FB47
:101660001B2002F0FDFA1E2002F0FAFA2A2002F0F6
:10167000FDFA002002F0F4FA002002F0F1FA002056
:1016800002F0EEFAEF2002F0EBFA2B2002F0EEFA75
:10169000002002F0E5FA002002F0E2FA012002F058
:1016A000DFFA3F2002F0DCFA292002F0DFFA22E71D
:1016B0009048808845F21031884240F07C87ED20C8
:1016C00002F0D4FA012002F0CBFAFE2002F0C8FAB0
:1016D000EE2002F0CBFADE2002F0C2FA212002F066
:1016E000BFFAF12002F0C2FA012002F0B9FADF20BD
:1016F00002F0BCFA102002F0B3FAC42002F0B6FAED
:101700008F2002F0ADFAC62002F0B0FA002002F0FD
:10171000A7FAE22002F0A4FAE22002F0A1FAE22005
:1017200002F09EFABF2002F0A1FAAA2002F098FA75
:10173000B02002F09BFA0D2002F092FA002002F095
:101740008FFA0D2002F08CFA002002F089FA1120A5
:1017500002F086FA002002F083FA192002F080FAE3
:10176000002002F07DFA212002F07AFA002002F037
:1017700077FA2D2002F074FA002002F071FA3D2071
:1017800002F06EFA002002F06BFA5D2002F068FAB7
:10179000002002F065FA5D2002F062FA002002F0FB
:1017A0005FFAB12002F062FA802002F059FA0020BC
:1017B00002F056FA8B2002F053FA002002F050FAA1
:1017C000962002F04DFA002002F04AFAB22002F010
:1017D0004DFA002002F044FA002002F041FA022003
:1017E00002F03EFA002002F03BFA032002F038FA41
:1017F000002002F035FAB32002F038FA002002F09F
:101800002FFA002002F02CFA002002F029FA002022
:1018100002F026FA002002F023FA002002F020FA5B
:10182000002002F01DFA002002F01AFA002002F057
:1018300017FA002002F014FA002002F011FA00203A
:1018400002F00EFA002002F00BFA002002F008FA73
:10185000002002F005FA002002F002FA002002F057
:10186000FFF9002002F0FCF9002002F0F9F9002055
:1018700002F0F6F9002002F0F3F9002002F0F0F98E
:10188000002002F0EDF9002002F0EAF9B42002F0A5
:10189000EDF98B2002F0E4F9002002F0E1F9962046
:1018A00002F0DEF9002002F0DBF9A12002F0D8F905
:1018B000002002F0D5F9B52002F0D8F9022002F09C
:1018C000CFF9002002F0CCF9032002F0C9F9002082
:1018D00002F0C6F9042002F0C3F9002002F0C0F9BA
:1018E000B62002F0C3F9002002F0BAF9002002F09D
:1018F000B7F901E0BC010020B72002F0B7F90020E1
:1019000002F0AEF9002002F0ABF93F2002F0A8F996
:10191000002002F0A5F95E2002F0A2F9002002F0FA
:101920009FF9642002F09CF9002002F099F98C20C4
:1019300002F096F9002002F093F9AC2002F090F941
:10194000002002F08DF9DC2002F08AF9002002F07C
:1019500087F9702002F084F9002002F081F99020CC
:1019600002F07EF9002002F07BF9EB2002F078F91A
:10197000002002F075F9DC2002F072F9002002F07C
:101980006FF9B82002F072F9002002F069F9002026
:1019900002F066F9002002F063F9002002F060F91D
:1019A000002002F05DF9002002F05AF9002002F058
:1019B00057F9002002F054F9BA2002F057F9242018
:1019C00002F04EF9002002F04BF9002002F048F935
:1019D000002002F045F9C12002F048F9202002F071
:1019E0003FF9002002F03CF9542002F039F90020C0
:1019F00002F036F9FF2002F033F9002002F030F94E
:101A0000C22002F033F90A2002F02AF9002002F085
:101A100027F9042002F024F9002002F021F9C32064
:101A200002F024F93C2002F01BF9002002F018F922
:101A30003A2002F015F9002002F012F9392002F0E4
:101A40000FF9002002F00CF9372002F009F900200C
:101A500002F006F93C2002F003F9002002F000F940
:101A6000362002F0FDF8002002F0FAF8322002F0F1
:101A7000F7F8002002F0F4F82F2002F0F1F800202F
:101A800002F0EEF82C2002F0EBF8002002F0E8F86B
:101A9000292002F0E5F8002002F0E2F8262002F00A
:101AA000DFF8002002F0DCF8242002F0D9F8002052
:101AB00002F0D6F8242002F0D3F8002002F0D0F88B
:101AC000232002F0CDF8002002F0CAF83C2002F0FA
:101AD000C7F8002002F0C4F8362002F0C1F8002058
:101AE00002F0BEF8322002F0BBF8002002F0B8F895
:101AF0002F2002F0B5F8002002F0B2F82C2002F0FE
:101B0000AFF8002002F0ACF8292002F0A9F800207C
:101B100002F0A6F8262002F0A3F8002002F0A0F8B8
:101B2000242002F09DF8002002F09AF8242002F010
:101B300097F8002002F094F8232002F091F800209A
:101B400002F08EF8C42002F091F8622002F088F8CA
:101B5000002002F085F8052002F082F8002002F053
:101B60007FF8842002F07CF8002002F079F8F02061
:101B700002F076F8002002F073F8182002F070F8F6
:101B8000002002F06DF8A42002F06AF8002002F0B4
:101B900067F8182002F064F8002002F061F8502085
:101BA00002F05EF8002002F05BF80C2002F058F81A
:101BB000002002F055F8172002F052F8002002F041
:101BC0004FF8952002F04CF8002002F049F8F3207D
:101BD00002F046F8002002F043F8E62002F040F858
:101BE000002002F03DF8C52002F040F8322002F05B
:101BF00037F8002002F034F8442002F031F80020D9
:101C000002F02EF8652002F02BF8002002F028F8F0
:101C1000762002F025F8002002F022F8882002F059
:101C20001FF8002002F01CF8C62002F01FF8202048
:101C300002F016F8002002F013F8172002F010F856
:101C4000002002F00DF8012002F00AF8002002F056
:101C500007F8C72002F00AF8002002F001F800207F
:101C600001F0FEFF002001F0FBFF002001F0F8FF73
:101C7000C82001F0FBFF002001F0F2FF002001F07E
:101C8000EFFF002001F0ECFF002001F0E9FFC92088
:101C900001F0ECFF002001F0E3FF002001F0E0FF85
:101CA000002001F0DDFF002001F0DAFF002001F04C
:101CB000D7FF002001F0D4FF002001F0D1FF002069
:101CC00001F0CEFF002001F0CBFF002001F0C8FFA3
:101CD000002001F0C5FF002001F0C2FF002001F04C
:101CE000BFFF002001F0BCFF002001F0B9FF002081
:101CF00001F0B6FFE02001F0B9FF162001F0B0FFBF
:101D0000002001F0ADFF1C2001F0AAFF002001F02F
:101D1000A7FF212001F0A4FF002001F0A1FF362041
:101D200001F09EFF002001F09BFF462001F098FF8C
:101D3000002001F095FF522001F092FF002001F0F9
:101D40008FFF642001F08CFF002001F089FF7A20D2
:101D500001F086FF002001F083FF8B2001F080FF5F
:101D6000002001F07DFF992001F07AFF002001F0B2
:101D700077FFA82001F074FF002001F071FFB92067
:101D800001F06EFF002001F06BFFC42001F068FF3E
:101D9000002001F065FFCA2001F062FF002001F081
:101DA0005FFFD22001F05CFF002001F059FFD92035
:101DB00001F056FF002001F053FFE02001F050FF3A
:101DC000002001F04DFFF32001F04AFF002001F058
:101DD00047FFE12001F04AFF162001F041FF0020FB
:101DE00001F03EFF1C2001F03BFF002001F038FF16
:101DF000222001F035FF002001F032FF362001F0F3
:101E00002FFF002001F02CFF452001F029FF0020CA
:101E100001F026FF522001F023FF002001F020FFF7
:101E2000642001F01DFF002001F01AFF7A2001F06C
:101E300017FF002001F014FF8B2001F011FF00209C
:101E400001F00EFF992001F00BFF002001F008FFC8
:101E5000A82001F005FF002001F002FFB92001F0E9
:101E6000FFFE002001F0FCFEC42001F0F9FE00207E
:101E700001F0F6FECA2001F0F3FE002001F0F0FEB2
:101E8000D22001F0EDFE002001F0EAFED82001F0A2
:101E9000E7FE002001F0E4FEE02001F0E1FE00207A
:101EA00001F0DEFEF32001F0DBFE002001F0D8FEA1
:101EB000E22001F0DBFE052001F0D2FE002001F05F
:101EC000CFFE0B2001F0CCFE002001F0C9FE1B204C
:101ED00001F0C6FE002001F0C3FE342001F0C0FE78
:101EE000002001F0BDFE442001F0BAFE002001F008
:101EF000B7FE4F2001F0B4FE002001F0B1FE6120DA
:101F000001F0AEFE002001F0ABFE792001F0A8FE4A
:101F1000002001F0A5FE882001F0A2FE002001F0C3
:101F20009FFE972001F09CFE002001F099FEA62064
:101F300001F096FE002001F093FEB72001F090FE24
:101F4000002001F08DFEC22001F08AFE002001F089
:101F500087FEC72001F084FE002001F081FED12021
:101F600001F07EFE002001F07BFED62001F078FE1D
:101F7000002001F075FEDD2001F072FE002001F06E
:101F80006FFEF32001F06CFE002001F069FEE320FB
:101F900001F06CFE052001F063FE002001F060FE00
:101FA0000A2001F05DFE002001F05AFE1C2001F025
:101FB00057FE002001F054FE332001F051FE0020B6
:101FC00001F04EFE442001F04BFE002001F048FEDF
:101FD000502001F045FE002001F042FE622001F099
:101FE0003FFE002001F03CFE782001F039FE002089
:101FF00001F036FE882001F033FE002001F030FEB3
:10200000972001F02DFE002001F02AFEA62001F00D
:1020100027FE002001F024FEB72001F021FE002061
:1020200001F01EFEC22001F01BFE002001F018FE90
:10203000C72001F015FE002001F012FED12001F0B2
:102040000FFE002001F00CFED52001F009FE00205B
:1020500001F006FEDD2001F003FE002001F000FE8D
:10206000F32001F0FDFD002001F0FAFDE42001F075
:10207000FDFD012001F0F4FD002001F0F1FD012043
:1020800001F0EEFD002001F0EBFD022001F0E8FD83
:10209000002001F0E5FD2A2001F0E2FD002001F022
:1020A000DFFD3C2001F0DCFD002001F0D9FD4B20DC
:1020B00001F0D6FD002001F0D3FD5D2001F0D0FD40
:1020C000002001F0CDFD742001F0CAFD002001F0D8
:1020D000C7FD842001F0C4FD002001F0C1FD932064
:1020E00001F0BEFD002001F0BBFDA22001F0B8FD13
:1020F000002001F0B5FDB32001F0B2FD002001F099
:10210000AFFDBE2001F0ACFD002001F0A9FDC42010
:1021100001F0A6FD002001F0A3FDCD2001F0A0FDFF
:10212000002001F09DFDD32001F09AFD002001F078
:1021300097FDDD2001F094FD002001F091FDF320DA
:1021400001F08EFD002001F08BFDE52001F08EFDF9
:10215000002001F085FD002001F082FD002001F04B
:102160007FFD002001F07CFD022001F079FD0020C0
:1021700001F076FD292001F073FD002001F070FDD3
:102180003C2001F06DFD002001F06AFD4B2001F0C4
:1021900067FD002001F064FD5D2001F061FD00207D
:1021A00001F05EFD742001F05BFD002001F058FDA0
:1021B000842001F055FD002001F052FD932001F034
:1021C0004FFD002001F04CFDA22001F049FD002050
:1021D00001F046FDB32001F043FD002001F040FD79
:1021E000BE2001F03DFD002001F03AFDC42001F0C9
:1021F00037FD002001F034FDCD2001F031FD00203D
:1022000001F02EFDD32001F02BFD002001F028FD70
:10221000DC2001F025FD002001F022FDF32001F07B
:102220001FFD002001F01CFDE62001F01FFD112024
:1022300001F016FD002001F013FD342001F010FD27
:10224000002001F00DFD562001F00AFD002001F0F4
:1022500007FD762001F004FD002001F001FD77204C
:1022600001F0FEFC002001F0FBFC662001F0F8FC10
:10227000002001F0F5FC882001F0F2FC002001F0C4
:10228000EFFC992001F0ECFC002001F0E9FCBB2000
:1022900001F0E6FC002001F0E3FC992001F0E0FCF5
:1022A000002001F0DDFC662001F0DAFC002001F0E6
:1022B000D7FC552001F0D4FC002001F0D1FC5520C2
:1022C00001F0CEFC002001F0CBFC452001F0C8FC61
:1022D000002001F0C5FC432001F0C2FC002001F009
:1022E000BFFC442001F0BCFC002001F0B9FCE72059
:1022F00001F0BCFC322001F0B3FC002001F0B0FC86
:10230000552001F0ADFC002001F0AAFC762001F080
:10231000A7FC002001F0A4FC662001F0A1FC002035
:1023200001F09EFC672001F09BFC002001F098FC6E
:10233000672001F095FC002001F092FC872001F05D
:102340008FFC002001F08CFC992001F089FC00201A
:1023500001F086FCBB2001F083FC002001F080FC32
:10236000992001F07DFC002001F07AFC772001F03B
:1023700077FC002001F074FC442001F071FC002087
:1023800001F06EFC562001F06BFC002001F068FCAF
:10239000232001F065FC002001F062FC332001F0F5
:1023A0005FFC002001F05CFC452001F059FC00209E
:1023B00001F056FCE82001F059FC002001F050FC2F
:1023C000002001F04DFC992001F04AFC002001F0B2
:1023D00047FC872001F044FC002001F041FC8820EC
:1023E00001F03EFC002001F03BFC772001F038FCBE
:1023F000002001F035FC662001F032FC002001F0E5
:102400002FFC882001F02CFC002001F029FCAA20E0
:1024100001F026FC002001F023FCBB2001F020FC91
:10242000002001F01DFC992001F01AFC002001F0B1
:1024300017FC662001F014FC002001F011FC55206F
:1024400001F00EFC002001F00BFC552001F008FC0F
:10245000002001F005FC442001F002FC002001F006
:10246000FFFB442001F0FCFB002001F0F9FB5520AC
:1024700001F0F6FB002001F0F3FBE92001F0F6FB90
:10248000AA2001F0EDFB002001F0EAFB002001F0A2
:10249000E7FB002001F0E4FB002001F0E7FBAA20AD
:1024A00001F0DEFBCF2001F0E1FB002001F0D8FBC2
:1024B000002001F0D5FB002001F0D2FB002001F04C
:1024C000CFFB002001F0CCFB002001F0C9FB002075
:1024D00001F0C6FB002001F0C3FB002001F0C0FBAF
:1024E000002001F0BDFB002001F0BAFB002001F04C
:1024F000B7FB002001F0B4FB002001F0B1FB00208D
:1025000001F0AEFB002001F0ABFB002001F0A8FBC6
:10251000F02001F0ABFB002001F0A2FB502001F005
:102520009FFB002001F09CFB002001F099FB0020A4
:1025300001F096FBF32001F099FB002001F090FBE5
:10254000F92001F093FB062001F08AFB102001F036
:1025500087FB292001F084FB002001F081FB3A2059
:1025600001F084FB552001F07BFB112001F07EFB84
:10257000642002F0B9FE292001F078FB352001F03B
:1025800075FB002001F06CFB512001F06FFBFF2078
:1025900001F066FB532001F069FB2C2001F060FB89
:1025A000552001F063FB822001F05AFB2C2001F042
:1025B0005DFB01F048B8FE48808845F21051884222
:1025C0007ED155214FF4704001F060FBAA214FF2FB
:1025D000010001F05BFB52214FF2020001F056FBBB
:1025E00008214FF2030001F051FB01214FF20400DA
:1025F00001F04CFB0D214FF4304001F047FB0D2161
:102600004BF2010001F042FB0D214BF2020001F000
:102610003DFB34214FF4364001F038FB34214BF2BE
:10262000016001F033FB34214BF2026001F02EFB1C
:102630000D214FF4314001F029FB0D214BF2011027
:1026400001F024FB0D214BF2021001F01FFB34219D
:102650004FF4374001F01AFB34214BF2017001F0C6
:1026600015FB34214BF2027001F010FB00214FF4F6
:10267000324001F00BFB00214BF2012001F006FB80
:1026800000214BF2022001F001FB24214FF43840DD
:1026900001F0FCFA24214BF6010001F0F7FA2421A5
:1026A0004BF6020001F0F2FA01214FF43F4001F035
:1026B000EDFA0F214FF4334001F0E8FA0F2100E06A
:1026C000FEE34BF2013001F0E1FA0F214BF2023050
:1026D00001F0DCFA34214FF4394001F0D7FA34210B
:1026E0004BF6011001F0D2FA34214BF6021001F042
:1026F000CDFA08214FF4354001F0C8FA08214BF219
:10270000015001F0C3FA08214BF2025001F0BEFA69
:1027100003214FF4424001F0B9FA24214FF43A402A
:1027200001F0B4FA24214BF6012001F0AFFA242184
:102730004BF6022001F0AAFA00214FF43C4001F0D0
:10274000A5FA78214BF6014001F0A0FA00214BF6E2
:10275000024001F09BFA00214FF43D4001F096FA4F
:1027600078214BF6015001F091FA00214BF602500E
:1027700001F08CFA00214FF43E4001F087FA642109
:102780004BF6016001F082FA00214FF4514001F054
:102790007DFA33214DF2011001F078FA00214DF25B
:1027A000021001F073FA34214DF2031001F06EFAB9
:1027B00000214DF2041001F069FA3A214DF20510A2
:1027C00001F064FA00214DF2061001F05FFA4A218F
:1027D0004DF2071001F05AFA00214DF2081001F0F5
:1027E00055FA5C214DF2091001F050FA00214DF22A
:1027F0000A1001F04BFA81214DF20B1001F046FA5C
:1028000000214DF20C1001F041FAA6214DF20D10FD
:1028100001F03CFA00214DF20E1001F037FAE521EB
:102820004DF20F1001F032FA01214DF2101001F0BB
:102830002DFA13214DF2111001F028FA01214DF269
:10284000121001F023FA54214DF2131001F01EFA78
:1028500001214DF2141001F019FA82214DF21510E8
:1028600001F014FA01214DF2161001F00FFACA21FD
:102870004DF2171001F00AFA02214DF2181001F082
:1028800005FA00214DF2191001F000FA02214DF273
:102890001A1001F0FBF901214DF21B1001F0F6F9BD
:1028A00002214DF21C1001F0F1F934214DF21D10FE
:1028B00001F0ECF902214DF21E1001F0E7F9672159
:1028C0004DF21F1001F0E2F902214DF2201001F04B
:1028D000DDF984214DF2211001F0D8F902214DF2E9
:1028E000221001F0D3F9A4214DF2231001F0CEF90A
:1028F00002214DF2241001F0C9F9B7214DF2251043
:1029000001F0C4F902214DF2261001F0BFF9CF21E8
:102910004DF2271001F0BAF902214DF2281001F012
:10292000B5F9DE214DF2291001F0B0F902214DF286
:102930002A1001F0ABF9F2214DF22B1001F0A6F9AB
:1029400002214DF22C1001F0A1F9FE214DF22D10C3
:1029500001F09CF903214DF22E1001F097F910219E
:102960004DF22F1001F092F903214DF2301001F0D9
:102970008DF933214DF2311001F088F903214DF228
:10298000321001F083F96D214DF2331001F07EF920
:1029900000214FF4524001F079F933214DF201202A
:1029A00001F074F900214DF2022001F06FF901E00D
:1029B000BC01002034214DF2032001F067F9002111
:1029C0004DF2042001F062F93A214DF2052001F0A8
:1029D0005DF900214DF2062001F058F94A214DF22F
:1029E000072001F053F900214DF2082001F04EF9C3
:1029F0005C214DF2092001F049F900214DF20A2035
:102A000001F044F981214DF20B2001F03FF9002142
:102A10004DF20C2001F03AF9A6214DF20D2001F003
:102A200035F900214DF20E2001F030F9E5214DF28B
:102A30000F2001F02BF901214DF2102001F026F9B1
:102A400013214DF2112001F021F901214DF2122044
:102A500001F01CF954214DF2132001F017F9012166
:102A60004DF2142001F012F982214DF2152001F0EF
:102A70000DF901214DF2162001F008F9CA214DF29D
:102A8000172001F003F902214DF2182001F0FEF8A1
:102A900000214DF2192001F0F9F802214DF21A201F
:102AA00001F0F4F801214DF21B2001F0EFF80221B2
:102AB0004DF21C2001F0EAF834214DF21D2001F006
:102AC000E5F802214DF21E2001F0E0F867214DF2F9
:102AD0001F2001F0DBF802214DF2202001F0D6F892
:102AE00084214DF2212001F0D1F802214DF2222063
:102AF00001F0CCF8A4214DF2232001F0C7F8022107
:102B00004DF2242001F0C2F8B7214DF2252001F04A
:102B1000BDF802214DF2262001F0B8F8CF214DF288
:102B2000272001F0B3F802214DF2282001F0AEF881
:102B3000DE214DF2292001F0A9F802214DF22A20D0
:102B400001F0A4F8F2214DF22B2001F09FF80221B0
:102B50004DF22C2001F09AF8FE214DF22D2001F0CB
:102B600095F803214DF22E2001F090F810214DF23E
:102B70002F2001F08BF803214DF2302001F086F870
:102B800033214DF2312001F081F803214DF2322042
:102B900001F07CF86D214DF2332001F077F800212F
:102BA0004FF4534001F072F833214DF2013001F03F
:102BB0006DF800214DF2023001F068F834214DF239
:102BC000033001F063F800214DF2043001F05EF8AB
:102BD0003A214DF2053001F059F800214DF206304E
:102BE00001F054F84A214DF2073001F04FF800216E
:102BF0004DF2083001F04AF85C214DF2093001F045
:102C000045F800214DF20A3001F040F881214DF2E3
:102C10000B3001F03BF800214DF20C3001F036F89A
:102C2000A6214DF20D3001F031F800214DF20E30A9
:102C300001F02CF8E5214DF20F3001F027F80121C9
:102C40004DF2103001F022F813214DF2113001F055
:102C50001DF801214DF2123001F018F854214DF207
:102C6000133001F013F801214DF2143001F00EF889
:102C700082214DF2153001F009F801214DF2163094
:102C800001F004F8CA214DF2173000F0FFFF0221D5
:102C90004DF2183000F0FAFF00214DF2193000F02B
:102CA000F5FF02214DF21A3000F0F0FF01214DF244
:102CB0001B3000F0EBFF02214DF21C3000F0E6FF6C
:102CC00034214DF21D3000F0E1FF02214DF21E30A3
:102CD00000F0DCFF67214DF21F3000F0D7FF02212A
:102CE0004DF2203000F0D2FF84214DF2213000F06F
:102CF000CDFF02214DF2223000F0C8FFA4214DF299
:102D0000233000F0C3FF02214DF2243000F0BEFF5B
:102D1000B7214DF2253000F0B9FF02214DF22630E7
:102D200000F0B4FFCF214DF2273000F0AFFF0221B9
:102D30004DF2283000F0AAFFDE214DF2293000F0DC
:102D4000A5FF02214DF22A3000F0A0FFF2214DF242
:102D50002B3000F09BFF02214DF22C3000F096FF4B
:102D6000FE214DF22D3000F091FF03214DF22E3067
:102D700000F08CFF10214DF22F3000F087FF03216F
:102D80004DF2303000F082FF33214DF2313000F04F
:102D90007DFF03214DF2323000F078FF6D214DF2BE
:102DA000333000F073FF00214FF4544000F06EFF09
:102DB00033214DF2014000F069FF00214DF2024045
:102DC00000F064FF34214DF2034000F05FFF00216A
:102DD0004DF2044000F05AFF3A214DF2054000F058
:102DE00055FF00214DF2064000F050FF4A214DF200
:102DF000074000F04BFF00214DF2084000F046FF75
:102E00005C214DF2094000F041FF00214DF20A40E3
:102E100000F03CFF81214DF20B4000F037FF002114
:102E20004DF20C4000F032FFA6214DF20D4000F0B3
:102E30002DFF00214DF20E4000F028FFE5214DF25C
:102E40000F4000F023FF01214DF2104000F01EFF63
:102E500013214DF2114000F019FF01214DF21240F3
:102E600000F014FF54214DF2134000F00FFF012138
:102E70004DF2144000F00AFF82214DF2154000F09F
:102E800005FF01214DF2164000F000FFCA214DF26E
:102E9000174000F0FBFE02214DF2184000F0F6FE54
:102EA00000214DF2194000F0F1FE02214DF21A40CE
:102EB00000F0ECFE01214DF21B4000F0E7FE00E0C7
:102EC00003E302214DF21C4000F0E0FE34214DF2FC
:102ED0001D4000F0DBFE02214DF21E4000F0D6FE48
:102EE00067214DF21F4000F0D1FE02214DF220403B
:102EF00000F0CCFE84214DF2214000F0C7FE0221FB
:102F00004DF2224000F0C2FEA4214DF2234000F019
:102F1000BDFE02214DF2244000F0B8FEB7214DF273
:102F2000254000F0B3FE02214DF2264000F0AEFE37
:102F3000CF214DF2274000F0A9FE02214DF228409A
:102F400000F0A4FEDE214DF2294000F09FFE022198
:102F50004DF22A4000F09AFEF2214DF22B4000F093
:102F600095FE02214DF22C4000F090FEFE214DF224
:102F70002D4000F08BFE03214DF22E4000F086FE26
:102F800010214DF22F4000F081FE03214DF2304020
:102F900000F07CFE33214DF2314000F077FE03213A
:102FA0004DF2324000F072FE6D214DF2334000F0E0
:102FB0006DFE00214FF4554000F068FE33214DF2C4
:102FC000015000F063FE00214DF2025000F05EFE61
:102FD00034214DF2035000F059FE00214DF204500F
:102FE00000F054FE3A214DF2055000F04FFE002152
:102FF0004DF2065000F04AFE4A214DF2075000F013
:1030000045FE00214DF2085000F040FE5C214DF2DB
:10301000095000F03BFE00214DF20A5000F036FE50
:1030200081214DF20B5000F031FE00214DF20C5089
:1030300000F02CFEA6214DF20D5000F027FE0021DD
:103040004DF20E5000F022FEE5214DF20F5000F03F
:103050001DFE01214DF2105000F018FE13214DF21B
:10306000115000F013FE01214DF2125000F00EFE3F
:1030700054214DF2135000F009FE01214DF214507D
:1030800000F004FE82214DF2155000F0FFFD0121F9
:103090004DF2165000F0FAFDCA214DF2175000F023
:1030A000F5FD02214DF2185000F0F0FD00214DF227
:1030B000195000F0EBFD02214DF21A5000F0E6FD30
:1030C00001214DF21B5000F0E1FD02214DF21C5098
:1030D00000F0DCFD34214DF21D5000F0D7FD02213F
:1030E0004DF21E5000F0D2FD67214DF21F5000F04E
:1030F000CDFD02214DF2205000F0C8FD84214DF29B
:10310000215000F0C3FD02214DF2225000F0BEFD1F
:10311000A4214DF2235000F0B9FD02214DF22450BC
:1031200000F0B4FDB7214DF2255000F0AFFD0221B3
:103130004DF2265000F0AAFDCF214DF2275000F0AD
:10314000A5FD02214DF2285000F0A0FDDE214DF238
:10315000295000F09BFD02214DF22A5000F096FD0F
:10316000F2214DF22B5000F091FD02214DF22C5036
:1031700000F08CFDFE214DF22D5000F087FD032163
:103180004DF22E5000F082FD10214DF22F5000F034
:103190007DFD03214DF2305000F078FD33214DF2DA
:1031A000315000F073FD03214DF2325000F06EFDFE
:1031B0006D214DF2335000F069FD00214FF456406F
:1031C00000F064FD33214DF2016000F05FFD00214D
:1031D0004DF2026000F05AFD34214DF2036000F020
:1031E00055FD00214DF2046000F050FD3A214DF2F2
:1031F000056000F04BFD00214DF2066000F046FD39
:103200004A214DF2076000F041FD00214DF20860B7
:1032100000F03CFD5C214DF2096000F037FD00211B
:103220004DF20A6000F032FD81214DF20B6000F09A
:103230002DFD00214DF20C6000F028FDA6214DF27D
:103240000D6000F023FD00214DF20E6000F01EFD28
:10325000E5214DF20F6000F019FD01214DF21060E3
:1032600000F014FD13214DF2116000F00FFD01215B
:103270004DF2126000F00AFD54214DF2136000F08F
:1032800005FD01214DF2146000F000FD82214DF298
:10329000156000F0FBFC01214DF2166000F0F6FC19
:1032A000CA214DF2176000F0F1FC02214DF21860C6
:1032B00000F0ECFC00214DF2196000F0E7FC022167
:1032C0004DF21A6000F0E2FC01214DF21B6000F0AB
:1032D000DDFC02214DF21C6000F0D8FC34214DF2DF
:1032E0001D6000F0D3FC02214DF21E6000F0CEFC08
:1032F00067214DF21F6000F0C9FC02214DF22060F1
:1033000000F0C4FC84214DF2216000F0BFFC0221DA
:103310004DF2226000F0BAFCA4214DF2236000F0CF
:10332000B5FC02214DF2246000F0B0FCB7214DF253
:10333000256000F0ABFC02214DF2266000F0A6FCF7
:10334000CF214DF2276000F0A1FC02214DF2286050
:1033500000F09CFCDE214DF2296000F097FC022178
:103360004DF22A6000F092FCF2214DF22B6000F049
:103370008DFC02214DF22C6000F088FCFE214DF204
:103380002D6000F083FC03214DF22E6000F07EFCE6
:1033900010214DF22F6000F079FC03214DF23060D6
:1033A00000F074FC33214DF2316000F06FFC03211A
:1033B0004DF2326000F06AFC6D214DF2336000F096
:1033C00065FC55214FF4704000F060FCAA214FF2DB
:1033D000010000F05BFC52214FF2020000F056FCAD
:1033E00008214FF2030000F051FC00214FF20400CD
:1033F00000F04CFCCC214FF4314000F047FC0021A0
:103400004BF2011000F042FC05214FF4364000F071
:103410003DFC70214FF4374000F038FC70214BF236
:10342000017000F033FC01214FF4384000F02EFC15
:1034300003214BF6010000F029FC03214BF60200AA
:1034400000F024FC03214BF6030000F01FFC0221D6
:103450004FF43C4000F01AFC00214BF6014000F014
:1034600015FC00214BF6024000F010FCD0214FF477
:10347000494000F00BFC02214CF6011000F006FC64
:1034800050214CF6021000F001FC50214CF60310C4
:1034900000F0FCFB50214CF6041000F0F7FB00217B
:1034A0004FF4545000F0F2FB55214FF4685000F0F7
:1034B000EDFB4FF4885000F0D9FB782001F03AFF83
:1034C0004FF4245000F0D2FBBDE06548808841F6FF
:1034D00063118842F8D1E22000F0C8FB1D2000F003
:1034E000BFFB022000F0BCFB042000F0B9FB64200D
:1034F00001F020FFE02000F0B9FB012000F0B0FB5C
:103500000A2001F0F1FEE02000F0B0FB032000F003
:10351000A7FB0C2001F0E8FE012000F0A7FB0A2029
:1035200001F0E2FEE62000F0A1FB2F2000F098FB66
:10353000FF2000F095FBFF2000F092FBB02000F090
:1035400095FB202000F08CFB002000F089FB03207D
:1035500000F086FB40F21F3000F082FB012000F0FB
:103560007FFB40F2DF1000F07BFB002000F078FBD7
:10357000B42000F07BFB042000F072FB40F21F40FF
:1035800000F06EFB002000F06BFB2E2000F068FBCB
:10359000002000F065FB002000F062FB002000F03E
:1035A0005FFB002000F05CFBB62000F05FFB022018
:1035B00000F056FB4FF4037000F052FB002000F0C7
:1035C0004FFB172000F04CFB152000F049FB0020BA
:1035D00000F046FB002000F043FBF02000F046FB2B
:1035E000032000F03DFB292000F040FBD02000F03C
:1035F0003DFB002000F034FBBE2000F037FB05202F
:1036000000F02EFBFE2000F02BFB012000F028FB39
:10361000002000F025FB002000F022FB002000F03D
:103620001FFBB82000F022FB032000F019FB012053
:1036300000F016FBBA2000F019FB012000F010FB8F
:10364000642000F027F80020FDF792FB01200549D7
:1036500008604FF6FF70FDF771FB1FB000BD000062
:10366000BC0100208081214210B50246012000E00B
:1036700050430B1EA1F10104E1B2F9D110BD0000CD
:1036800008B5034800880090BDF8000008BD0000A0
:103690000008006C2DE9F0470446BE2000F0E6FA71
:1036A000052000F0DDFA204606F07AF807464FF0D4
:1036B00066320C4B06F088F8054606F02DF81FFA26
:1036C00080F9484600F0CCFA012000F0C9FAFF204A
:1036D00000F0C6FA002000F0C3FA002000F0C0FAA3
:1036E000BDE8F0876666044070B5044600230026F6
:1036F00089488079012805D18748808841F663117F
:10370000884208D184488079F0B98348808841F69E
:103710006311884218D1082C15D2DFE804F00406A2
:10372000080A0C0E101206240DE007240BE00424F6
:1037300009E0052407E0012405E0002403E0032458
:1037400001E0022400BF00BF082C1CD2DFE804F017
:103750000406090C0F12151800BF14E043F0800393
:1037600011E043F040030EE043F0C0030BE043F0F0
:10377000200308E043F0600305E043F0A00302E00B
:1037800043F0E00300BF00BF6348808845F210515A
:10379000884202D14FF4585600E036265E488088B1
:1037A00049F24131884205D05B48808847F28971EF
:1037B000884201D143F008031946304600F066FA0A
:1037C0005548808841F6631188421DD003F02000DF
:1037D00068B15148008850494988884214DA4E48F7
:1037E000058840884C490880084645800CE04A48D6
:1037F000008849494988884206DD4748058840884D
:1038000045490880084645804348808845F2105164
:10381000884252D14049488900F028FA002000F03F
:103820001FFA3D494989491C88B200F01FFA00205F
:1038300000F016FA38494989891C88B200F016FA56
:1038400035490988491EC1F30F2000F009FA3249B1
:103850004989C91C88B200F009FA2F490978491E24
:10386000C8B200F0FDF92C49888900F0FFF900206A
:1038700000F0F6F928498989491C88B200F0F6F968
:10388000002000F0EDF924498989891C88B200F0F4
:10389000EDF921494988491EC1F30F2000F0E0F9F4
:1038A0001D498989C91C88B200F0E0F91A49897854
:1038B000491EC8B200F0D4F92DE01749488900F03C
:1038C000D5F9002000F0CCF9002000F0C9F9124928
:1038D0000988491EC1F30F2000F0C2F90E4909788A
:1038E000491EC8B200F0BCF90B49888900F0BEF946
:1038F000002000F0B5F9002000F0B2F9064949882F
:10390000491EC1F30F2000F0ABF903498978491E25
:10391000C8B200F0A5F970BDBC01002000B5024698
:103920000B464548808841F66311884247D142489A
:103930008079A8B940480088401E801A82B23E496A
:10394000488900F093F9002000F08AF9002000F087
:1039500087F9101200F084F9D0B200F081F916E076
:103960003549488900F082F9101200F079F9D0B297
:1039700000F076F930490988491EC1F30F2000F0A4
:103980006FF92D490978491EC8B200F069F92A4932
:10399000888900F06BF9181200F062F9D8B200F0D3
:1039A0005FF925494988491EC1F30F2000F058F9F5
:1039B00021498978491EC8B200F052F93AE01E4800
:1039C000808845F21051884220D11B49488900F077
:1039D0004DF9101200F044F917494989491C88B281
:1039E00000F044F9D0B200F03BF91349888900F0A7
:1039F0003DF9181200F034F90F498989491C88B241
:103A000000F034F9D8B200F02BF913E00A494889E4
:103A100000F02CF9101200F023F9D0B200F020F9D8
:103A20000549888900F022F9181200F019F9D8B276
:103A300000F016F900BD0000BC0100202DE9F84F90
:103A400080460E4617461C46B3462046E31704EB55
:103A50005373DB1021464FEAE47C04EB5C7C4FEAB5
:103A6000EC0CA4EBCC0CBCF1000F02D04FF0010C1D
:103A700001E04FF0000C6344224604EBD27C4FEA95
:103A80006C0C03FB0CF3DBB20093A7F12000C7B270
:103A9000002556E00C2C07D107EB47002B4901EB22
:103AA000800010F8059013E0102C05D1284800EB99
:103AB000071010F805900BE0182C07D107EBC70092
:103AC000244901EB800010F8059001E0BDE8F88F73
:103AD0004FF0000A2FE009F0800030B11E48028844
:103AE00031464046FDF7DCF907E00A9828B91B4843
:103AF000028831464046FDF7D3F94FEA49604FEA64
:103B00001069701C86B216484088B04200DCDDE7C0
:103B1000A6EB0B00A0420AD15E4608F101001FFA95
:103B200080F80F480088404500DCCFE706E00AF146
:103B3000010000F0FF0ABAF1080FCCDB00BF681CDF
:103B4000C5B200988542A5DB00BFBFE7AAA5000863
:103B50001EAA00080EB00008160000201800002061
:103B6000BC0100202DE9FF4F81B0074691461E465B
:103B70000E9D4FF0000A002439E0301B401EC1B2F8
:103B80000A20FFF771FDB9FBF0F00A21B0FBF1F25A
:103B900001FB1208BAF1000F16D1701EA04213DD0E
:103BA000B8F1000F0ED10020AB4605EBDB714910D8
:103BB00001FB0471009088B22B4620220299FFF786
:103BC0003DFF12E04FF0010A0020AB4605EBDB7130
:103BD000491001FB0471009088B208F13001CAB2AB
:103BE0002B460299FFF72AFF00BF601CC4B2B44203
:103BF000C3DB05B0BDE8F08F2DE9F84704460D465C
:103C000090469946DDE9096704F0FF0A08EB0400D5
:103C10001FFA80F809EB05001FFA80F916E0444509
:103C200002DB5446A81985B24D4500DB14E00020A4
:103C300000903A78334629462046FFF7FFFE30468B
:103C400006EBD07104EB61018CB27F1C38787E28C2
:103C500002DC38782028E2DA00BFBDE8F8870000EF
:103C600001490880704700000008006C0149088085
:103C700070470000FE07006C024800890249088076
:103C800070470000BC010020FE07006C024A108053
:103C9000921C118070470000FE07006C08B50121DE
:103CA000482000F0ABFB2020ADF8000010208DF87C
:103CB000030003208DF8020069460948FCF7EDFE79
:103CC00020210748FCF7C5FF2020ADF80000694619
:103CD0000448FCF7E2FE20210248FCF7BAFF08BDC9
:103CE000000C0140001801402DE9FC4104460D463E
:103CF00016466B4606223B21682000F042FA074632
:103D0000BFB99DF801009DF8001040EA012000B203
:103D100020809DF803009DF8021040EA012000B2C7
:103D200028809DF805009DF8041040EA012000B2AB
:103D300030803846BDE8FC812DE9FC4104460D4643
:103D400016466B4606224321682000F01AFA074601
:103D5000BFB99DF801009DF8001040EA012000B2B3
:103D600020809DF803009DF8021040EA012000B277
:103D700028809DF805009DF8041040EA012000B25B
:103D800030803846BDE8FC812DE9F84F6B460222B1
:103D90004121682000F0F5F99DF801009DF8001020
:103DA00040EA01200FFA80FA504605F0E2FC804616
:103DB00000220B4B05F01CFB06460A4A0A4B05F095
:103DC0005BFA044605F026FA83460849584606F091
:103DD00001FA044606F062F900B2BDE8F88F00006F
:103DE00000407540A4703D0AD74342400000C842DD
:103DF00010B500200E4908600E48006820F470409D
:103E00000C4908600846006840F4405008600020F3
:103E10000949C1F8AC0100F011F80120044908601B
:103E200000F00CF800200449C1F8A80110BD000002
:103E3000A8812142040C01400080214210B50220DB
:103E400001F078FA10BD000008B50121082000F04B
:103E5000D5FA4FF44060ADF8000010208DF8030053
:103E600003208DF8020069460448FCF716FE4FF463
:103E700040610248FCF7EDFE08BD0000000C014067
:103E800010B500200E4908600E48006820F470400C
:103E90000C4908600846006840F440500860012062
:103EA0000949C1F8AC01FFF7C9FF012004490860C6
:103EB000FFF7C4FF00200449C1F8A80110BD0000AD
:103EC000A8812142040C01400080214270B50546C2
:103ED00000241648006820F4704014490860084621
:103EE000006840F400400860002614E000201049FB
:103EF0000860FFF7A3FF01200E49C1F8A801600682
:103F0000040E0B487C38006808B1601CC4B2FFF78F
:103F100095FF701CC6B2082EE8DB15B9FFF7B0FF9D
:103F200001E0FFF765FF204670BD0000040C014072
:103F3000A88121420080214270B5044612480068E1
:103F400020F47040104908600846006840F4405072
:103F5000086000200D490860002512E0E0090B49C7
:103F6000091D08606006040E01200949C1F8A80176
:103F7000FFF764FF002005490860FFF75FFF681C3A
:103F8000C5B2082DEADB70BD040C0140A8812142B6
:103F90000080214210B50E48006820F470400C49A2
:103FA00008600846006840F4405008600120094954
:103FB00008600949C1F8A801FFF740FF0020054942
:103FC0000860FFF73BFF00200349C1F8A80110BDBE
:103FD000040C0140AC8121420080214210B50E4802
:103FE000006820F470400C4908600846006840F4FE
:103FF000405008600020094908600949C1F8AC0137
:10400000FFF71CFF0120054908600549C1F8AC0114
:10401000FFF714FF10BD0000040C0140A8812142ED
:104020000080214210B500241448006820F470403C
:10403000124908600846006840F40040086001200A
:104040000F490860FFF7FAFE01200E49C1F8A801E8
:10405000FFF7F4FE07E0601CC4B2FA2C03DDFFF7A3
:10406000BDFF012010BD0648803800680028F2D14D
:104070000349091F086000BFF4E70000040C014079
:10408000AC8121420080214238B50121084600F070
:10409000B5F90121042000F0B1F94FF40040ADF86A
:1040A000000010208DF8030003208DF802006946FF
:1040B0002248FCF7F2FC01212148FCF779FD0020A1
:1040C00020490860FFF7C0FE80216B2000F0DDF87A
:1040D000642001F009F900216B2000F0D6F80320DC
:1040E00000F091F8002000F086F8322000F0B0F8DF
:1040F0000021382000F0C9F800216A2000F0C5F83E
:104100000021232000F0C1F88021372000F0BDF805
:10411000752000F019F80446682C0BD101216B20A2
:1041200000F0B3F800216C2000F0AFF8322000F06E
:104130008FF801E0012038BD0020FCE700080140B5
:1041400000023000BC01214270B50446FFF722FF97
:10415000D020FFF7F1FEFFF765FF2046FFF7ECFEEA
:10416000FFF760FFFFF716FFD120FFF7E5FEFFF72F
:1041700059FF0020FFF7AAFE0546FFF72FFF28464C
:1041800070BD2DE9F04106460F4614461D46FFF767
:1041900001FF002141EA4601C8B2FFF7CDFEFFF75B
:1041A00041FF20B1FFF71AFF0120BDE8F08138463A
:1041B000FFF7C2FEFFF736FFFFF7ECFE012101EB30
:1041C0004601C8B2FFF7B8FEFFF72CFF0DE0012C47
:1041D00004D10020FFF77AFE287003E00120FFF7EA
:1041E00075FE2870601EC4B26D1C002CEFD1FFF765
:1041F000F5FE0020D9E710B50446E006010E1C20AC
:1042000000F043F810BD10B50446E006010E1B2077
:1042100000F03BF810BD70B504460025BC2C01DB56
:10422000012510E0622C01DB02250CE02A2C01DBC9
:10423000032508E0142C01DB042504E00A2C01DB33
:10424000052500E0062529461A2000F01EF870BD5D
:1042500070B50446B4F57A7F01DD4FF47A74042C0E
:1042600000DA04244FF47A7090FBF4F0401EC5B2DB
:104270002946192000F009F80546264604EBD671B8
:10428000C1F34F00FFF7C7FF70BD70B505460C4680
:10429000FFF780FED020FFF74FFEFFF7C3FE18B1F7
:1042A000FFF79CFE012070BD2846FFF745FEFFF793
:1042B000B9FE2046FFF740FEFFF7B4FE18B1FFF746
:1042C0008DFE0120EFE7FFF789FE0020EBE72DE9E7
:1042D000F04105460E4617469846FFF75BFE002163
:1042E00041EA4501C8B2FFF727FEFFF79BFE20B168
:1042F000FFF774FE0120BDE8F0813046FFF71CFE99
:10430000FFF790FE00240CE018F80400FFF714FEFD
:10431000FFF788FE18B1FFF761FE0120EBE7601C94
:10432000C4B2BC42F0DBFFF759FE0020E3E700BF58
:10433000FEE7704770B5002100230F22C47804B354
:10434000154C246804F4E064C4F5E064210AC1F16A
:104350000403CA40447804FA03F1847814402143EA
:1043600009010E4C0678A155047804F01F050124BC
:10437000AC4005786D11AD0005F1E025C5F80041B0
:1043800009E0047804F01F050124AC40044D0678D0
:10439000761145F8264070BD0CED00E000E400E029
:1043A00080E100E002490143024A116070470000C9
:1043B0000000FA050CED00E07047000029B1064A44
:1043C00052690243044B5A6104E0034A5269824332
:1043D000014B5A61704700000010024029B1064AA3
:1043E000D2690243044BDA6104E0034AD269824392
:1043F000014BDA61704700000010024029B1064A03
:1044000092690243044B9A6104E0034A9269824331
:10441000014B9A61704700000010024030B5002146
:104420000022002400232D4D6D6805F00C0121B100
:10443000042905D0082923D105E0294D056022E093
:10444000274D05601FE0254D6D6805F47012234D62
:104450006D6805F48034022505EB92421CB9214DAC
:10446000554305600BE01D4D6D6805F400351DB129
:104470001C4D5543056002E0194D5543056002E0AF
:10448000174D056000BF00BF144D6D6805F0F001C9
:104490000909154D6B5C0568DD4045600F4D6D6881
:1044A00005F4E061090A104D6B5C4568DD408560EC
:1044B0000A4D6D6805F46051C90A0B4D6B5C456887
:1044C000DD40C560054D6D6805F44041890B074D21
:1044D0006B5CC568B5FBF3F5056130BD00100240AB
:1044E00000127A0000093D005E0000206E000020EE
:1044F000704710B500F002F810BD00000CB50020A8
:10450000019000903348006840F4803031490860E1
:1045100000BF3048006800F4003000900198401C53
:104520000190009818B90198B0F5A06FF1D1294811
:10453000006800F4003010B10120009001E000207C
:1045400000900098012843D12348006840F01000F3
:10455000214908600846006820F00300086008460A
:10456000006840F0020008601A4840681949486035
:104570000846406848600846406840F480604860EB
:104580000846406820F47C1048600846406840F4C3
:10459000E81048600846006840F08070086000BF7E
:1045A0000C48006800F000700028F9D00948406805
:1045B00020F00300074948600846406840F00200C8
:1045C000486000BF0348406800F00C000828F9D19B
:1045D0000CBD00000010024000200240042808D159
:1045E0004FF0E021096941F004014FF0E022116130
:1045F00007E04FF0E021096921F004014FF0E022CB
:10460000116170477047000010B51348006840F012
:1046100001001149086008464068104908400E49E9
:104620004860084600680E4908400B490860084683
:10463000006820F4802008600846406820F4FE00EE
:1046400048604FF41F008860FFF753FF4FF0006091
:104650000449086010BD0000001002400000FFF88F
:10466000FFFFF6FE08ED00E010B501210A4800F05A
:1046700035F801280AD10949086980470021064810
:1046800000F048F86421044800F042F80121024893
:1046900000F009F810BD000000080040C80000202C
:1046A000CA4302827047CA430282704721B102881E
:1046B00042F00102028004E002884FF6FE731A40C5
:1046C000028070470146888C704702460020138A9A
:1046D0000B400BB1012000E00020704730B50246CE
:1046E000002000230024158A05EA0103958905EAC4
:1046F000010413B10CB1012000E0002030BD1AB15B
:1047000083890B43838102E083898B4383817047D4
:104710008185704781847047002202881D4B984232
:104720000ED01D4B98420BD0B0F1804F08D01B4BE0
:10473000984205D01A4B984202D01A4B984204D1A5
:104740004FF68F731A404B881A43174B984207D085
:10475000164B984204D04FF6FF431A40CB881A43B9
:1047600002808B8883850B8803850A4B98420BD087
:10477000094B984208D00E4B984205D00D4B9842F9
:1047800002D00D4B984201D10B7A0386012383821C
:1047900070470000002C014000340140000400403C
:1047A00000080040000C00400010004000140040D1
:1047B0000040014000440140004801407FB50546EB
:1047C0000C4601210420FFF709FEADF80850ADF8B2
:1047D00004400020ADF80A00ADF8060001A90D481C
:1047E000FFF79AFF012241210A48FFF788FF1E20A8
:1047F0008DF8000003208DF801008DF802000120E3
:104800008DF803006846FFF795FD01210148FFF789
:104810004DFF7FBD0008004010B540F225511D48F6
:1048200000F057F810B31B4800F00EF9C4B21A4854
:10483000008800F40040C8B91748008800F48040A0
:1048400060B10A2C03D000201349088020E01248F0
:10485000008840F400401049088019E00D2C06D172
:104860000D48008840F480400B49088010E00A4859
:104870000088C0F30D0009490C5407480088401C0B
:104880000549088008460088C72801DD0020088007
:1048900010BD0000003801405C000020DC01002059
:1048A00021B1828942F40052828104E082894DF66E
:1048B000FF731A408281704702460020B1F5007FE5
:1048C00000D100BF13880B400BB1012000E0002095
:1048D000704770B50246002400230025002040F6F2
:1048E0006A16B14200D100BFC1F3421501F01F03A7
:1048F000012606FA03F3012D02D19689334006E022
:10490000022D02D1168A334001E0968A33400C1200
:10491000012606FA04F41688344013B10CB10120C4
:1049200000E0002070BDF0B50346002400260025FD
:10493000002040F66A17B94200D100BF1846C1F303
:10494000421401F01F06012707FA06F5012C01D1D8
:104950000C3004E0022C01D1103000E014301AB108
:1049600007682F43076002E00768AF430760F0BDA8
:104970002DE9F04786B005460E460024A24600BF4A
:10498000A1460027B08900B100BF2F462C8A4CF603
:10499000FF700440F08804432C82AC894EF6F3107B
:1049A0000440B08831890843718908430443AC81CD
:1049B000AC8A4FF6FF400440B0890443AC8201A8A2
:1049C000FFF72CFD1F48874202D1DDF810A001E05F
:1049D000DDF80CA0A88900F4004040B10AEBCA0041
:1049E00000EB0A1031684900B0FBF1F807E00AEB70
:1049F000CA0000EB0A1031688900B0FBF1F86420AE
:104A0000B8FBF0F004012009642101FB1089A8899A
:104A100000F4004040B1322000EBC900B0FBF1F0DF
:104A200000F00700044308E0322000EB0910642185
:104A3000B0FBF1F000F00F0004432C8106B0BDE89C
:104A4000F08700000038014001468888C0F3080064
:104A50007047C1F308028280704700BFFEE749003B
:104A600050EAC12018BF04204A0D18BF40F00100D1
:104A700040F2FF72B2EB515F08BF40F00200012824
:104A800008BF052070472DE9F0414F1E00EBC7011C
:104A90000446D1E9000115461E4637F006020DD046
:104AA0002A46334604F090FE7F1E04EBC703D3E989
:104AB000002304F0E1FB37F00602F1D1022F25D0EC
:104AC000042F13D0062F18BFBDE8F0812A463346C5
:104AD00004F07AFED4E90A2304F0CEFB2A463346DA
:104AE00004F072FED4E9082304F0C6FB2A463346DC
:104AF00004F06AFED4E9062304F0BEFB2A463346DE
:104B000004F062FED4E9042304F0B6FB2A463346DF
:104B100004F05AFED4E9022304F0AEFB2A463346E1
:104B200004F052FED4E90023BDE8F04104F0A4BB38
:104B3000012205F0F4BC04F09FBB0022134610468E
:104B4000114604F055BC0000024A0020110705F090
:104B5000E6BC000001FDFFFF30380A2801D2012029
:104B600070470020704700BF704700002DE9FE4FDE
:104B700006460F460025684601F0EAF9002442E0A7
:104B800056F8240057F82410A0EB010ABAF1000FE0
:104B900001DB514601E0CAF10001084605F0BAFA0E
:104BA00083464FF08F4105F083F980465DF824007D
:104BB000002105F03FFA16D05DF82410404605F0BC
:104BC00077F982464FF07E5105F002FC814629F0CC
:104BD000004A0F48416A504605F0C8FB12D2012036
:104BE000A04005430EE00A48C169404605F0BEFA00
:104BF00005D30748016A404605F0B8FB02D2012000
:104C0000A0400543641C032CBADB2846BDE8FE8F98
:104C100094BD00082DE9F04D8D4F21F0004A86B07B
:104C200005460C46BA452ADBAAEB070028430AD002
:104C30008848824501DC1AD1CDB106B02846BDE8CE
:104C4000F04DFFF775BF844A844B284604F0BCFD45
:104C500007460E46824A834B2846214604F0B4FD9F
:104C600006B03A463346BDE8F04D04F005BB0120DE
:104C7000FBF75EFD06B0BDE8F04DFFF75EBF7A487A
:104C8000824542DABAF1795F0BDA2846FFF7E7FE90
:104C9000042808BFFFF758FF284606B02146BDE8A4
:104CA000F08D2A460B46104604F08EFD83460246E0
:104CB0006E480E460B4606217844FFF7E4FE5A463E
:104CC000334604F081FD804669488A465A46334699
:104CD00004217844FFF7D7FE5A46334604F074FDAA
:104CE00000223B4604F0C8FA02460B4640465146B5
:104CF00004F07EFB2A46234604F066FD06B02A46F1
:104D00002346BDE8F04D04F0B7BA284624F0004130
:104D100000223D463B4604F055FE4FF0FF3205F0C1
:104D2000FEFB0646024653480F460B4606217844D2
:104D3000FFF7A9FE32463B4604F046FDCDE90001EF
:104D40004D4832463B4604217844FFF79CFE3246EC
:104D50003B4604F039FD00222B4604F08DFA8346D1
:104D600002913046394603F0B7F8804643480D4675
:104D7000504517DCDDE900015A46029B04F038FB80
:104D800042462B4604F020FD42462B4604F074FABE
:104D9000012205F0C4FB304A304B04F005FF304AD5
:104DA000304B4CE04FF0000A52460B46404604F0B0
:104DB00063FACDE9031052462B461046194604F01B
:104DC00003FD32463B4604F0FDFDDDE9033204F00D
:104DD0000FFB06460F46DDE900015A46029B04F030
:104DE00007FB8346009101223046394605F097FBC8
:104DF000194A1A4B04F0E6FD06460F4601224046CA
:104E0000294605F08CFB5A46009B04F0DDFC324637
:104E10003B4604F0C9FE06460F460122504629468D
:104E200005F07DFB0E4DDFF858802A46434604F01E
:104E3000C9FD32463B4604F0C5FD2A46434604F010
:104E4000C1FD002CD8BF81F0004106B0BDE8F08D57
:104E50000000F03F0000F07F075C143326A6913C71
:104E6000182D4454FB21F93F0000E03F347D000041
:104E70004A7D0000BE7C0000D47C00003333EF3F4D
:104E8000FB21E93F2DE9F84F04460D4621F0004093
:104E900000917349814211DC7249884201DC06D1DC
:104EA0002CB120462946BDE8F84FFFF741BE6E48B9
:104EB000002DCCBF6D496E49BDE8F88F6D49814228
:104EC00011DD6D498142D8BF4FF0FF366DDD2046C0
:104ED0002946FFF7C4FD042808BFFFF735FE20462A
:104EE0002946BDE8F88F6549654F25F000458142A8
:104EF00033DD6449814219DD002632464FF080439C
:104F00002046294604F0B8F980468A460122204608
:104F1000294605F004FB00223B4604F045FE4246CC
:104F2000534604F065FA04460D463EE00126002291
:104F3000BA463B462046294604F09EF980460F4675
:104F4000002253462046294604F02EFE42463B46A8
:104F500004F04EFA04460D4627E04B4981421BDD22
:104F6000DFF828A10226002253462046294604F0F5
:104F70002BFC00223B4604F07FF980460F460022BE
:104F800053462046294604F00FFE42463B4604F0B5
:104F90002FFA04460D4608E0032622462B46002041
:104FA0003B4904F025FA04460D4622462B4610469E
:104FB000194604F009FC8B46824602460B4604F073
:104FC00003FC07460246334888460B4606217844D0
:104FD000FFF759FD52465B4604F0F6FB82462E4829
:104FE0008B463A46434605217844FFF74CFD3A4646
:104FF000434604F0E9FB02460B46002E5046594654
:105000000CDA04F039F922462B4604F0DDFB01B03E
:1050100022462B46BDE8F04F04F0D4BC04F02CF936
:1050200022462B4604F0D0FB1C4A7A4402EBC6030E
:10503000D3E9002304F0B8FD22462B4604F0B4FD6A
:10504000174A7A4402EBC603D3E9002304F0BAFC02
:10505000009A002AB8BF81F00041BDE8F88F000037
:10506000000010440000F07F182D4454FB21F93F4C
:10507000FB21F9BF0000DC3F0000203E0000F33FB1
:105080000000F03F0000E63F008003400000F83FD2
:105090000000F0BFD67A0000947A0000327A000057
:1050A000FA7900002DE9F04D9446CCF1000423F08C
:1050B00000464CEA0404594F46EAD4749A4688469E
:1050C00021F00042BC4206D8454240EA050442EACB
:1050D000D474BC4204D9BDE8F04D6246FFF72BBD45
:1050E000AAF14055A5F17F6555EA0C040BD00224C6
:1050F00004EAAA744A4DDFF82CE144EAD87452EA73
:10510000000B04D00CE0BDE8F04DFFF7BBBE002C57
:1051100014BF012CBDE8F08D022C30D0032C32D00E
:1051200056EA0C0B0AD0BE4220D1BA4209D126F071
:10513000804622F080423346114617E000291ADBF0
:1051400025E0DFF8E4B0FB44002C04BFDBE90001FC
:10515000BDE8F08D012C02BFDBE9000181F00041C8
:10516000BDE8F08D022C0AD0032C0CD0BA4212D12B
:10517000B8F1000F0BDA2A482C49BDE8F08D28461B
:105180002B49BDE8F08D28467146BDE8F08D2448D6
:105190002849BDE8F08D921B12153C2AC4BF204F50
:1051A000244E10DCBAF1000FBEBF12F13C0F0027F5
:1051B0003E4608DB624604F01BF921F00041FFF790
:1051C00061FE07460E4694B1012C08BF86F00046EA
:1051D0000DD0194A194B022C3846314615D004F02F
:1051E000E3FC2A46BDE8F04D114B04F0DDBC002283
:1051F00013463846314604F053FA04BF0220FBF749
:1052000097FA38463146BDE8F08D04F0CDFC2A46C9
:10521000BDE8F04D064B04F0D5BB00000000F07F68
:10522000182D4454FB2109C08E790000FB21F9BFE1
:10523000FB210940FB21F93F075C143326A6A13C62
:105240002DE9F0410446E07800F0C006E07800F077
:105250003F05607800F0010098B1EF102846E9178B
:1052600005EB5171C910A5EBC101491C01F0FF0804
:105270000B48006820B10A4841460268384690470A
:1052800000BF607800F0080030B10548406818B1F0
:10529000B011034A516888470020BDE8F081000042
:1052A000CC01002010B56FF00400FFF797F90A4811
:1052B00000680A49B0FBF1F0094908700846007817
:1052C00000EB4001C1EBC0104FF6FF7101EAC000D6
:1052D0000449088010BD00000000002000127A0080
:1052E00052000020540000200146114A12884A430F
:1052F0004FF0E0235A6100229A611A46126942F087
:1053000001021A6100BF4FF0E022106900F00102B3
:105310001AB100F48032002AF5D04FF0E022126971
:1053200022F001024FF0E0231A6100229A617047D7
:10533000540000200146114A12784A434FF0E023FE
:105340005A6100229A611A46126942F001021A61FA
:1053500000BF4FF0E022106900F001021AB100F422
:105360008032002AF5D04FF0E022126922F00102CB
:105370004FF0E0231A6100229A617047520000202A
:1053800038B5044664B120208DF8000028208DF83F
:10539000010030208DF8020038208DF8030004E071
:1053A000A32204216846FBF73BF96A46042140F634
:1053B0009E2002F0BBFC02F0A5F838BD3EB50446C5
:1053C00002208DF80000CA208DF80100E3208DF83E
:1053D000020009208DF803006A460421682002F0CB
:1053E000A5FCA3208DF8000004F0400048B1C020C7
:1053F0008DF80100C8208DF80200C2208DF803004E
:1054000006E0A3208DF801008DF802008DF803005E
:1054100004F4C07048B1C4208DF80400CC208DF88D
:105420000500C6208DF8060006E0A3208DF80400D4
:105430008DF805008DF80600A3208DF807008DF883
:1054400008008DF809006A460A2140F6A72002F0FC
:105450006DFC04F0030018B120208DF8000002E07C
:10546000D8208DF800006A46012140F6B62002F0EF
:105470005DFC04F0200018B1012000F0ADF802E05E
:10548000002000F0A9F804F4C07008B304F48070A0
:1054900060B1B2208DF800008B208DF80100B6209D
:1054A0008DF802009B208DF803000BE0B0208DF8F2
:1054B000000080208DF80100B4208DF802009020BB
:1054C0008DF803006A46042140F6A22002F02EFC6B
:1054D00004F0010020B3F8208DF800006A46012195
:1054E0004FF40B6002F022FCFA21072000F02CFCA4
:1054F000072000F0F3FB012000F013FC642000F013
:10550000F3FC4FF4FA7000F002FDC821304800F0BF
:10551000A3FB282000F0BCFB0A2000F0CCFB08E035
:10552000D8208DF800006A4601214FF40B6002F08C
:10553000FDFB04F0020018B1D9208DF8000002E054
:10554000D8208DF800006A46012140F23D7002F03B
:10555000EDFB04F0040018B1012000F069F802E04E
:10556000002000F065F804F0100018B10120FFF7EA
:1055700007FF02E00020FFF703FF44F00800154991
:10558000488101F0BFFF00201249887304F04000F9
:1055900018B10846807B801D887304F4C07020B168
:1055A0000C48807B801D0B49887304F0140020B1E7
:1055B0000848807B10300749887304F0030020B14D
:1055C0000448807B001D0349887300203EBD000015
:1055D00009E3CA02CC0100203EB504466CB10EA11D
:1055E000D1E900208968CDE9002002916A460921AD
:1055F0004FF4976002F09AFB3EBD0AA2D2E9001078
:105600009268CDE9010200916A4609214FF4976042
:1056100002F08CFBF0E70000B8AAB38DB4980D350A
:105620005D000000B8AAAAAAB088C3C5C7000000E0
:1056300038B5044664B1C0208DF80000C2208DF852
:105640000100C4208DF80200C6208DF8030004E09C
:105650008B2204216846FAF7E3FF6A46042140F6EC
:10566000982002F063FB01F04DFF38BD10B5C82350
:105670004FF48062024940F6F63001F0D7FD10BDCC
:10568000BCBD00082DE9F04F8DB007468846154691
:105690009946DDE9166B0024002030806B49887B39
:1056A0005A4605A901F08EFE18B1601E0DB0BDE886
:1056B000F08F6648807A00F01400002867D09DF8CB
:1056C000140000069DF8151040EA01409DF81610E0
:1056D00040EA01209DF81710084328609DF8180043
:1056E00000069DF8191040EA01409DF81A1040EAA2
:1056F00001209DF81B10084368609DF81C000006FF
:105700009DF81D1040EA01409DF81E1040EA01205E
:105710009DF81F100843A8609DF8200000069DF822
:10572000211040EA01409DF8221040EA01209DF836
:1057300023100843E86004F11000C4B22868001484
:105740000190686800140290A86800140390E8684B
:105750000014049001984043029901FB0100039951
:1057600001FB0100049901FB010ABAF1706F02DB31
:10577000BAF1885F05DD01F0C5FE00203080401ED3
:1057800094E7B6F9000040F48070308000BF2F48E5
:10579000807A00F0400020B305A9601C085C095D18
:1057A00040EA012000B2A8F8000005A9E01C095C4D
:1057B00005AAA01C105C41EA002000B2A8F8020073
:1057C00005A9601D095C201D105C41EA002000B2A3
:1057D000A8F80400A01DC4B2B6F9000040F008000B
:1057E00030801A48408900F4C07008B305A9601CD5
:1057F000085C095D40EA012000B2388005A9E01C80
:10580000095C05AAA01C105C41EA002000B2788067
:1058100005A9601D095C201D105C41EA002000B252
:10582000B880A01DC4B2B6F9000040F0700030800E
:105830000648807A00F0030018B105A90819FFF79F
:10584000FFFC484601F04EF900202FE7CC01002074
:1058500070B588B0064601A801F03CFBBDF8040015
:105860000021C90341EA5045C4034448007A00F0CE
:10587000030056F8200005904048007A00F004002C
:1058800010B10598404205903C48007AC0F3C10031
:1058900056F8200006903948007A00F0200010B138
:1058A0000698404206903548007AC0F3811056F8B9
:1058B000200007903148008900F4807010B10798EB
:1058C000404207900598C117A0FB042301FB043157
:1058D00000FB0510810041EA927005900698C117FF
:1058E000A0FB042301FB043100FB0510810041EA09
:1058F000927006900798C117A0FB042301FB0431A6
:1059000000FB0510810041EA927007900598000E97
:105910008DF808000598000C8DF809000598000A1C
:105920008DF80A000598C0B28DF80B000698000E9D
:105930008DF80C000698000C8DF80D000698000AF2
:105940008DF80E000698C0B28DF80F000798000E73
:105950008DF810000798000C8DF811000798000AC8
:105960008DF812000798C0B28DF8130002AA0C211E
:105970004FF4257002F0DAF908B070BDCC010020B8
:1059800030B585B0044616A207CA02AB07C3C82CBF
:1059900003DD4FF0FF3005B030BDC82090FBF4F0C0
:1059A000401E85B2280A8DF80000E8B28DF801008B
:1059B0006A46022140F2162002F0B8F910B14FF009
:1059C000FF30E8E702AA0C2140F6C12002F0AEF950
:1059D00010B14FF0FF30DEE7044884810020DAE7A1
:1059E000FEF2ABC4AAF1DFDFBBAFDFDFCC010020EA
:1059F0001FB504464848007A00F0030054F8200020
:105A000001904548007A00F0040010B1019840422E
:105A100001904148007AC0F3C10054F82000029080
:105A20003D48007A00F0200010B1029840420290F8
:105A30003948007AC0F3811054F8200003903648AA
:105A4000008900F4807010B10398404203903349FC
:105A5000019880FB0101800F40EA810001902F49ED
:105A6000029880FB0110820042EA917002902B495B
:105A7000039880FB0110820042EA91700390019824
:105A8000000E8DF800000198000C8DF801000198BF
:105A9000000A8DF802000198C0B28DF803006A4632
:105AA00004214FF4747002F041F918B14FF0FF3047
:105AB00004B010BD0298000E8DF800000298000C92
:105AC0008DF801000298000A8DF802000298C0B219
:105AD0008DF803006A4604214FF4757002F026F930
